:020000040800F2
:10000000A8050020E1010008A9280008BD25000876
:10001000A52800085D0400082D300008000000003D
:10002000000000000000000000000000AF280008F1
:100030005F05000800000000AD280008B128000896
:10004000FB010008FB010008FB010008FB010008A0
:10005000FB010008FB010008FB010008FB01000890
:10006000FB010008FB010008FB010008FB01000880
:10007000FB010008FB010008FB010008FB01000870
:10008000FB010008FB010008ED0200080000000071
:10009000000000000000000000000000FB0100085C
:1000A00085290008FB010008FB010008FB0100088E
:1000B000000000000000000000000000FB0100083C
:1000C000FB010008FB010008FB010008FB01000820
:1000D000FB0100081D300008FB01000800000000C3
:1000E000FB010008FB010008000000000000000008
:1000F000000000000000000000000000FB010008FC
:100100000000000000000000FB01000800000000EB
:100110000000000000000000FB01000800000000DB
:10012000FB010008FB01000861040008FB01000856
:10013000FB010008000000000000000000000000BB
:1001400000000000000000000000000000000000AF
:10015000FB010008FB01000871040008FB01000816
:10016000000000000000000000000000000000008F
:10017000000000000000000000000000000000007F
:10018000FB010008FB010008000000000000000067
:1001900000000000FB01000800000000000000005B
:1001A000000000000000000000000000000000004F
:1001B000000000000000000000000000FB0100083B
:1001C000FB010008FB010008DFF810D000F07CF80C
:1001D0000048004787300008AFF30080A8050020E2
:1001E0000648804706480047FEE7FEE7FEE7FEE7D1
:1001F000FEE7FEE7FEE7FEE7FEE7FEE771290008FF
:10020000C90100082DE9F05F0546002092469B4693
:1002100088460646814640241BE02846414647461C
:10022000224600F041F853465A46C01A914110D375
:1002300011461846224600F028F82D1A67EB0108EF
:100240004F4622460120002100F01FF817EB00095D
:100250004E41201EA4F10104DFDC484631462A4607
:100260004346BDE8F09FD2B201E000F8012B491EE1
:10027000FBD270470022F6E710B513460A46044643
:100280001946FFF7F0FF204610BD202A04DB203A74
:1002900000FA02F1002070479140C2F1200320FAD9
:1002A00003F3194390407047202A04DB203A21FAD7
:1002B00002F00021704721FA02F3D040C2F120027F
:1002C0009140084319467047064C074D06E0E06828
:1002D00040F0010394E8070098471034AC42F6D38D
:1002E000FFF776FFC8300008E830000810B5024874
:1002F00000F018FB10BD00001000002055494A68AE
:1003000022F440324A604A6843681A434A600268ED
:10031000526822F4807203685A6002685368026966
:1003200043EA022203685A600268526822F040726F
:1003300003685A600268526883681A4303685A6007
:100340000268926822F4006203689A600268926808
:10035000C3681A4303689A603F4B826A9A4218D076
:100360000268926822F0706203689A60026892687C
:10037000836A1A4303689A600268926822F04052C6
:1003800003689A6002689268C36A1A4303689A60B5
:100390000BE00268926822F0706203689A6002685B
:1003A000926822F0405203689A600268926822F0D4
:1003B000020203689A6002689368027E43EA42027E
:1003C00003689A602022125CA2B10268526842F46B
:1003D000006203685A600268526822F4604203684F
:1003E0005A6002685368426A521E43EA4232036806
:1003F0005A6005E00268526822F4006203685A609D
:100400000268D26A22F470020368DA620268D36A70
:10041000828B521E43EA02520368DA6202689268D3
:1004200022F4007203689A600268936890F83020A2
:1004300043EA422203689A600268926822F480626A
:1004400003689A6002689368426943EA82220368FB
:100450009A607047002301400100000F00BFFEE7D3
:1004600010B5024800F0F8FB10BD0000E8000020C5
:1004700010B5024800F0F0FB10BD0000480100205C
:100480000146087810381823B0FBF3F20848805C66
:10049000C865032A05D908686FF30900001D88653F
:1004A00003E008686FF309008865886D70470000F5
:1004B000A6300008014600208A6A8B69CBB932B1A8
:1004C000012A0DD0022A03D0032A10D10EE000BF6A
:1004D000CB6A03F08073B3F1807F00D1012007E085
:1004E000CB6AB3F1C07F00D1012001E000E000BF82
:1004F00034E08B69B3F5005F1AD132B1012A07D01D
:10050000022A03D0032A11D10AE000BF01200EE025
:10051000CB6A03F08073B3F1807F00D1012006E045
:10052000CB6AB3F1C07F00D1012000E000BF15E02D
:1005300032B1012A05D0022A04D0032A0CD103E0EB
:1005400000BF00BF012008E0CB6A03F08073B3F165
:10055000807F00D1012000E000BF00BF70477047DE
:1005600072B600BFFEE7000030B50246854C8869D0
:10057000A04200D000BF00BF92F83C00012801D18A
:10058000022030BD012082F83C0000BF0868092825
:1005900016D91068C0680C780A3C04EB440507249F
:1005A000AC40A0431468E0600C780A3C04EB4404BF
:1005B0008868A0401468E46820431468E06013E091
:1005C000106800690C7804EB44050724AC40A04394
:1005D000146820610C7804EB44048868A040146817
:1005E00024692043146820611068806B20F4401057
:1005F0001468A0631068846B088A401E44EA0050A7
:100600001468A0630879C01C0C7C001B00EB8004FC
:100610001F20A0401468A46B844310688463087989
:10062000C01C0C7C001B00EB8004088880B2A0403A
:100630001468A46B20431468A063524C8869A042DC
:1006400018D01068806820F470201468A0601068CA
:1006500080688C6920431468A0601068806820F46A
:1006600040101468A06010688068CC69204314684A
:10067000A0600BE01068806820F470201468A0600F
:100680001068806820F440101468A060487D30B184
:100690001068406840F480601468606005E010688D
:1006A000406820F4806014686060087D30B1106894
:1006B000406840F480501468606005E0106840684D
:1006C00020F48050146860604868012804D0022833
:1006D0000FD0032827D119E0106840696FF30B0091
:1006E0001468606110684069CC68204314686061D8
:1006F00026E0106880696FF30B001468A061106831
:100700008069CC6820431468A06119E01068C06952
:100710006FF30B001468E0611068C069CC68204377
:100720001468E0610CE01068006A6FF30B00146855
:1007300020621068006ACC6820431468206200BF01
:1007400000BF114B114C1068A04206D10868122856
:1007500003D1586840F4800058600C4C1068A042E7
:1007600009D10868102802D00868112803D15868F8
:1007700040F40000586000BF002082F83C0000BF39
:1007800000BFFEE601000F000023014000200140F1
:100790007047000038B502460020009000BF92F874
:1007A0003C00012801D1022038BD012082F83C0024
:1007B00000BF0868092816D91068C0680C780A3C80
:1007C00004EB44050724AC40A0431468E0600C78B7
:1007D0000A3C04EB44048868A0401468E4682043A1
:1007E0001468E06013E0106800690C7804EB4405BD
:1007F0000724AC40A043146820610C7804EB440447
:100800008868A040146824692043146820614868FF
:10081000072817D21068406B0C79641E04EB84051E
:100820001F24AC40A04314686063088880B20C7930
:10083000641E04EB8404A0401468646B20431468B5
:10084000606331E048680D2817D21068006B0C799E
:10085000E41F04EB84051F24AC40A043146820630C
:10086000088880B20C79E41F04EB8404A04014686B
:10087000246B20431468206316E01068C06A0C796A
:100880000D3C04EB84051F24AC40A0431468E062D7
:10089000088880B20C790D3C04EB8404A0401468F5
:1008A000E46A20431468E062194B1A4C1068A042B5
:1008B00006D10868122803D1586840F480005860B7
:1008C000144C1068A0421CD10868102802D0086897
:1008D000112816D1586840F40000586008681028A4
:1008E0000FD10D4800680D4CB0FBF4F000EB800018
:1008F0004000009002E00098401E00900098002800
:10090000F9D100BF002082F83C0000BF00BF4BE7D8
:1009100000230140002001400C00002040420F0055
:10092000704770472DE9F0410446002500262068F5
:1009300007682068D0F8048007F0020508F0200658
:1009400095B38EB3206C00F0100018B9206C40F401
:10095000007020642068806800F04050E8B9207E74
:10096000D8B92068C06A00F4700020B1206880689F
:1009700000F4806088B92068406820F02000216879
:100980004860206C20F480702064206C00F480505B
:1009900018B9206C40F0010020642046FFF7C0FF2A
:1009A0006FF012002168086007F0040508F0800667
:1009B000E5B3DEB3206C00F0100018B9206C40F4F1
:1009C000005020642068806800F4401038BB206824
:1009D000806B00F4401020B12068806800F48060D3
:1009E000E8B92068406800F48060C0B92068806879
:1009F00000F0405098B9207E88B92068406820F007
:100A0000800021684860206C20F480502064206CB5
:100A100000F4807018B9206C40F00100206420467A
:100A2000FFF7B6FE6FF00C002168086007F00105C3
:100A300008F0400685B17EB12068006800F0010032
:100A400050B1206C40F480302064204600F050F813
:100A50006FF001002168086007F0200508F080664B
:100A60007DB176B1606C40F0020060646FF02000F0
:100A7000216808602046FFF754FF6FF020002168CE
:100A80000860BDE8F081000070B5044600250CB98F
:100A9000012070BD1549A06A884200D000BF206CBB
:100AA00030B9204600F026F80020606484F83C004D
:100AB000206C00F0100088B9206C20F4885040F0C1
:100AC000020020642046FFF719FC00206064206CBF
:100AD00020F0020040F00100206400E0012500BF8A
:100AE000002084F83C0000BF2846D2E70100000F38
:100AF0007047000010B586B00446142101A8FFF726
:100B0000B9FB1D492068884233D100BF0020009006
:100B10001A48006840F48070184908600846006868
:100B200000F48070009000BF00BF00BF0020009064
:100B300012481438006840F0010010491439086068
:100B40000846006800F00100009000BF00BF782058
:100B50000190032002900020039001A9084800F0B2
:100B600011FA00221146122000F070FB122000F052
:100B700059FB06B010BD000000200140443802407F
:100B80000000024070B50446A56D00F0D1FA06469B
:100B900094F83500022808D08020606500BF00204E
:100BA00084F8340000BF012070BD2068006820F088
:100BB0001600216808602068406920F080002168E4
:100BC0004861206C08B9A06C28B12068006820F04A
:100BD0000800216808602068006820F00100216892
:100BE000086010E000F0A4FA801B05280BD9202033
:100BF0006065032084F8350000BF002084F83400CD
:100C000000BF0320D0E72068006800F00100002842
:100C1000E8D194F85C103F208840A860012084F857
:100C2000350000BF002084F8340000BF00BFBBE7E0
:100C3000014691F83500022803D080204865012044
:100C40007047052081F835000868006820F0010031
:100C50000A6810600020F3E7F8B504460020009011
:100C60008C4800684FF41651B0FBF1F7A56D2E6863
:100C700094F85C1008208840304098B120680068E3
:100C800000F0040070B12068006820F004002168C2
:100C9000086094F85C1008208840A860606D40F0FF
:100CA0000100606594F85C1001208840304068B114
:100CB0002068406900F0800040B194F85C10012089
:100CC0008840A860606D40F00200606594F85C1098
:100CD00004208840304068B12068006800F00200BD
:100CE00040B194F85C1004208840A860606D40F02A
:100CF0000400606594F85C1010208840304078B3A0
:100D00002068006800F0080050B394F85C101020D0
:100D10008840A8602068006800F4802080B12068C6
:100D2000006800F4002028B9206CC8B12046216C6E
:100D3000884715E0A06C98B12046A16C88470FE069
:100D40002068006800F4807028B92068006820F0EE
:100D5000080021680860206C10B12046216C88478B
:100D600094F85C10202088403040002865D020682E
:100D7000006800F0100000285FD094F85C1020207C
:100D80008840A86094F83500052828D120680068BC
:100D900020F01600216808602068406920F080007B
:100DA00021684861206C08B9A06C28B120680068EF
:100DB00020F008002168086094F85C103F2088400B
:100DC000A860012084F8350000BF002084F83400BA
:100DD00000BF206D10B12046216D8847F8BD206806
:100DE000006800F4802080B12068006800F40020D2
:100DF00028B9606C10B12046616C88471DE0E06B3B
:100E0000D8B12046E16B884717E02068006800F4FD
:100E1000807068B92068006820F0100021680860C0
:100E2000012084F8350000BF002084F8340000BFA2
:100E3000E06B10B12046E16B8847606D38B3606DA0
:100E400000F00100F0B1052084F83500206800684A
:100E500020F001002168086000BF0098401C00904D
:100E6000B84200D905E02068006800F001000028C1
:100E7000F3D100BF012084F8350000BF002084F8C2
:100E8000340000BFE06C10B12046E16C884700BF21
:100E9000A4E700000C0000202DE9F04104460025E5
:100EA00000F046F9074614B90120BDE8F081606AF8
:100EB00000B100BF022084F8350000BF002084F894
:100EC000340000BF2068006820F00100216808603D
:100ED0000AE000F02DF9C01B052805D92020606527
:100EE000032084F83500E0E72068006800F0010086
:100EF0000028EED12068056821480540D4E90101A9
:100F00000843E16808432169084361690843A1690E
:100F10000843E1690843216A08430543606A0428DD
:100F200003D1D4E90B01084305432068056020681C
:100F3000456925F00705606A0543606A04280DD1FC
:100F4000A06A0543E06A48B12046FFF7B3FA28B12A
:100F500040206065012084F83500A6E720684561DF
:100F60002046FFF78DFA064694F85C103F20884033
:100F7000B06000206065012084F83500002094E70F
:100F80003F8010F0F8B503460A46002500240020F3
:100F90000021BDE0012606FA01F5166806EA0504FF
:100FA000AC4274D1167906F00306012E04D01679EE
:100FB00006F00306022E13D198684F000326BE40A8
:100FC000B0434F00D668BE40304398605868012651
:100FD0008E40B0431679C6F300168E4030435860F9
:100FE000167906F00306032E09D0D8684F000326B1
:100FF000BE40B0434F009668BE403043D86016797B
:1010000006F00306022E13D1CF0803F1200656F88E
:1010100027004E07F70E0F26BE40B0434F07FF0EC6
:101020001669BE403043CF0803F1200646F827007A
:1010300018684F000326BE40B043167906F0030639
:101040004F00BE4030431860566806F44036002E0C
:101050005DD000BF002600962F4E366846F48046CD
:101060002D4F3E603E46366806F48046009600BF2F
:1010700000BF2A4E8F0856F827008E07370F0F261D
:10108000BE40B043264EB34202D100260BE03EE004
:10109000244EB34201D1012605E0234EB34201D1D3
:1010A000022600E007268F073F0FBE4030431B4E4D
:1010B0008F0846F827001D4E3068A043566806F496
:1010C000801606B12043194E3060361D3068A043AB
:1010D000566806F4001606B12043144E361D3060E3
:1010E000124E361F3068A043566806F4003606B12B
:1010F00020430E4E361F3060361F3068A0435668BE
:1011000006F4803606B12043084E083E3060491C84
:101110001029FFF43FAFF8BD4438024008380140C1
:10112000000002400004024000080240083C014068
:101130000148006870470000000000200348006874
:1011400003490978084401490860704700000020FD
:101150000800002010B50D48006840F400700B49ED
:1011600008600846006840F480600860084600682F
:1011700040F480700860032000F0A6F80F2000F013
:1011800007F800F02BF8002010BD0000003C0240E2
:1011900070B504460E4800784FF47A71B1FBF0F058
:1011A0000C490968B1FBF0F5284600F039FC08B19C
:1011B000012070BD102C07D200222146501E00F0E5
:1011C00045F80548046001E00120F2E70020F0E75F
:1011D000080000200C0000200400002008B500BF1B
:1011E000002000900E48006840F480400C490860E0
:1011F0000846006800F48040009000BF00BF00BFB8
:1012000000200090081F006840F08050091F08600F
:101210000846006800F08050009000BF00BF08BD85
:10122000443802400146084600280DDB00BF00BFDD
:1012300000F01F0301229A4043099B0003F1E023C1
:10124000C3F8002100BF00BF00BF70472DE9F05F69
:1012500080460D461646002701F0EAFE074639464D
:101260002A46334601F00700C0F1070ABAF1040F1D
:1012700002D94FF0040A01E0C0F1070AD14600F19B
:10128000040ABAF1070F02D24FF0000A01E0A0F100
:10129000030AD4464FF0010A0AFA09FAAAF1010A30
:1012A0000AEA020A0AFA0CFA4FF0010B0BFA0CFBDD
:1012B000ABF1010B0BEA030B4AEA0B042146404653
:1012C00001F0BEFEBDE8F09F00BF00F00702064B34
:1012D00019684FF6FF031940044B0B4343EA022100
:1012E000014B196000BF70470CED00E00000FA05EB
:1012F00070B504460D460CB9012070BD5848006811
:1013000000F00700A84209D255490D700846006850
:1013100000F00700A84201D00120EEE7207800F09D
:10132000020002281DD1207800F00400042805D115
:101330004C48006840F4E0504A490860207800F0CA
:101340000800082805D14748006840F46040454936
:1013500008604448006820F0F000A1680843414953
:101360000860207800F00100A8B36068012807D168
:101370003C4808380068C0F34040B8B90120BCE7D9
:101380006068022802D06068032807D13548083811
:101390000068C0F3406048B90120AEE73148083822
:1013A0000068C0F3400008B90120A6E72D48006896
:1013B00020F00300616808432A490860FFF7B8FE7F
:1013C000064609E0FFF7B4FE801B41F288318842EF
:1013D00002D9032091E707E02248006800F00C00E2
:1013E0006168B0EB810FEDD11D48006800F0070087
:1013F000A84209D91A490D700846006800F0070094
:10140000A84201D0012078E7207800F004000428E9
:1014100007D11448006820F4E050E16808431149FE
:101420000860207800F00800082808D10D480068FE
:1014300020F46040216940EAC1000A49086000F0D8
:101440003FF808490968C1F30311074A515CC840D5
:101450000649086006480068FFF79AFE00204CE73E
:10146000003C024008380240AE3000080C0000206A
:101470000400002001480068704700000C000020B4
:1014800000B5FFF7F7FF04490968C1F38221034A59
:10149000515CC84000BD000008380240BE30000862
:1014A00000B5FFF7E7FF04490968C1F34231034A79
:1014B000515CC84000BD000008380240BE30000842
:1014C0002DE9F047002400250026A14625480068A4
:1014D00000F00C0020B1042805D008283AD105E01E
:1014E000DFF8849039E0DFF8849036E01D48001F73
:1014F000006800F03F041B48001F006800F48000F3
:1015000078B11A481749091F0968C1F38811A0FB6F
:1015100001700146224600233846FEF773FE054659
:101520000EE011480F49091F0968C1F38811A0FB9B
:1015300001700146224600233846FEF763FE054649
:101540000848001F0068C0F30140401C4600B5FB7E
:10155000F6F902E0DFF8109000BF00BF4846BDE892
:10156000F0870000083802400024F40040787D0134
:10157000F8B504460CB90120F8BD207800F0010050
:10158000002874D0F748006800F00C0004280DD043
:10159000F448006800F00C00082813D1F148001F3F
:1015A000006800F48000B0F5800F0BD1ED480838DA
:1015B0000068C0F34040002859D06068002856D128
:1015C0000120D9E700BF6068B0F5803F08D1E54849
:1015D0000838006840F48030E249083908601EE0AD
:1015E0006068B0F5A02F0DD1DE480838006840F4DF
:1015F0008020DC49083908600846006840F48030E3
:1016000008600CE0D7480838006820F48030D549DD
:10161000083908600846006820F48020086000BF90
:10162000606890B1FFF784FD054606E0FFF780FD96
:10163000401B642801D903209EE7CA480838006887
:10164000C0F340400028F1D011E0FFF771FD0546DE
:1016500006E0FFF76DFD401B642801D903208BE7EE
:10166000C04808380068C0F340400028F1D1207815
:1016700000F0020002285FD1BA48006800F00C00B8
:1016800058B1B848006800F00C0008281CD1B548D3
:10169000001F006800F48000B0B9B2480838006844
:1016A000C0F3400020B1E068012801D0012063E7C9
:1016B000AC480838006820F0F800216940EAC10011
:1016C000A8490839086037E0E06800B30120A6495E
:1016D0000860FFF72DFD054606E0FFF729FD401BDA
:1016E000022801D9032047E79E4808380068C0F364
:1016F00040000028F1D09B480838006820F0F8002E
:10170000216940EAC10097490839086014E00020C7
:1017100095490860FFF70CFD054606E0FFF708FD58
:10172000401B022801D9032026E78E4808380068AC
:10173000C0F340000028F1D1207800F0080008280C
:101740002CD16069A8B1012088490860FFF7F0FC3E
:10175000054606E0FFF7ECFC401B022801D90320F8
:101760000AE780486C300068C0F340000028F1D0E0
:1017700014E000207D490860FFF7DAFC054606E02A
:10178000FFF7D6FC401B022801D90320F4E6754878
:101790006C300068C0F340000028F1D1207800F0E0
:1017A0000400042870D100276E483830006800F02B
:1017B000805090B900BF002000906A48383000681F
:1017C00040F080506749383108600846006800F0F2
:1017D0008050009000BF00BF01276548006800F4FA
:1017E0008070B0B96248006840F480706049086059
:1017F000FFF79EFC054606E0FFF79AFC401B022817
:1018000001D90320B8E65A48006800F48070002827
:10181000F2D000BFA068012808D1524868300068A3
:1018200040F001004F49683108601DE0A0680528BC
:101830000DD14C486830006840F0040049496831D7
:1018400008600846006840F0010008600CE0454868
:101850006830006820F0010042496831086008469D
:10186000006820F00400086000BFA068A8B1FFF77E
:101870005FFC054609E0FFF75BFC401B41F2883145
:10188000884202D9032077E626E0364868300068AF
:10189000C0F340000028EED013E0FFF749FC0546F6
:1018A00008E0FFF745FC401B41F28831884201D92E
:1018B000032061E62B4868300068C0F34000002830
:1018C000EFD1012F07D127483830006820F0805031
:1018D00024493831086000BFA069002850D0214851
:1018E000006800F00C00082860D0A069022848D1E8
:1018F00000201D490866FFF71BFC054606E0FFF7C0
:1019000017FC401B022801D9032035E6154808388A
:101910000068C0F340600028F1D1D4E90701084312
:10192000616A40EA81110122A06AC2EB500041EADB
:1019300000412C20005D41EA00613020005D41EA59
:1019400000700849091F0860012007490866FFF771
:10195000EFFB05460EE0FFF7EBFB401B022809D921
:10196000032009E60838024000004742800E474243
:101970000070004028480068C0F340600028EAD0AA
:1019800048E0002025490866FFF7D2FB054606E03F
:10199000FFF7CEFB401B022801D90320ECE51E48CF
:1019A0000068C0F340600028F2D133E0A06901284C
:1019B00000D1E1E51848001D0668A069012827D07C
:1019C00006F48001E069814222D106F03F01206ADD
:1019D00081421DD147F6C0703040616AB0EB811F73
:1019E00016D106F440310122A06AC2EB5000B1EBDF
:1019F000004F0DD106F070612C20005DB1EB006F3F
:101A000006D106F0E0413020005DB1EB007F01D04F
:101A10000120B1E50020AFE5003802400000474258
:101A200070B504462546681EB0F1807F01D30120C1
:101A30000FE0681E4FF0E02148610F214FF0FF30AA
:101A400001F0FEFA00204FF0E021886107200861D4
:101A5000002070BD7047704710B50346002200BFDC
:101A600093F83C00012801D1022010BD012083F829
:101A70003C0000BF22F0FF00CC6840EA040222F4E0
:101A800040708C6840EA040222F480604C6840EAAE
:101A9000040222F400600C6840EA040222F4805040
:101AA0000C6940EA040222F400504C6940EA040246
:101AB00022F48040CC6940EA04021868426400BF06
:101AC000002083F83C0000BF00BFCEE730B50246DF
:101AD0000B4600BF92F83C00012801D1022030BD26
:101AE000012082F83C0000BF022082F83D0010680F
:101AF00044681068816824F0700418680443106812
:101B000044600E4D1068A84207D00D4D1068A842E1
:101B100003D00C4D1068A84205D121F0800158680F
:101B2000014310688160012082F83D0000BF002061
:101B300082F83C0000BF00BFD1E700000000014078
:101B4000000C00400040014010B504460CB90120D3
:101B500010BD94F83D0028B9002084F83C002046D0
:101B600000F026F8022084F83D00211D206800F0D6
:101B700011FF012084F8460000BF84F83E000121D7
:101B80003F200155402001554120015500BF00BFB5
:101B9000012084F84200432001554420015545208E
:101BA000015500BF012084F83D000020D0E700006F
:101BB00010B586B00446142101A8FEF75BFB1E4950
:101BC0002068884236D100BF002000901B48006882
:101BD00040F00100194908600846006800F0010063
:101BE000009000BF00BF00BF0020009013481438D1
:101BF000006840F002001149143908600846006886
:101C000000F00200009000BF00BF88140190022085
:101C100002900020039004900120059001A908483B
:101C2000FFF7B0F9002211461820FFF70FFB18202C
:101C3000FFF7F8FA06B010BD00000140443802403A
:101C4000000402402DE9F04104460D46002700BF84
:101C500094F83C00012802D10220BDE8F081012067
:101C600084F83C0000BF022084F83D0020688668AC
:101C700026F0770626F47F4620688660286850287C
:101C800033D00CDC202850D004DC00284BD01028A6
:101C900051D149E0302849D040284CD139E0602862
:101CA0002DD0702807D0B0F5805F03D0B0F5005F6D
:101CB00041D10DE041E0D5E902136A68206800F0E7
:101CC000A3FE2068866846F077062068866034E0C8
:101CD000D5E902136A68206800F096FE20688068E3
:101CE00040F480402168886027E0EA6869682068DD
:101CF00000F05AFF5021206800F091FE1DE0EA68D4
:101D00006968206800F063FF6021206800F087FEAA
:101D100013E0EA686968206800F046FF4021206807
:101D200000F07DFE09E000BF00BF00BF2968206809
:101D300000F075FE01E0012700BF00BF012084F81C
:101D40003D0000BF002084F83C0000BF384684E717
:101D5000704770B504462068C5682068066906F0BB
:101D60000200022819D105F00200022815D1401FF7
:101D700021680861012020772068806900F0030055
:101D800018B12046FFF7E4FF05E0204600F0E8F830
:101D9000204600F09CF90020207706F0040004287B
:101DA00019D105F00400042815D1C0432168086149
:101DB000022020772068806900F4407018B1204626
:101DC000FFF7C6FF05E0204600F0CAF8204600F005
:101DD0007EF90020207706F00800082819D105F0C8
:101DE0000800082815D1C043216808610420207725
:101DF0002068C06900F0030018B12046FFF7A8FF73
:101E000005E0204600F0ACF8204600F060F9002024
:101E1000207706F01000102819D105F010001028C6
:101E200015D1C04321680861082020772068C06967
:101E300000F4407018B12046FFF78AFF05E0204605
:101E400000F08EF8204600F042F90020207706F0DE
:101E5000010048B105F0010030B16FF001002168C8
:101E60000861204600F034F906F08000802809D18E
:101E700005F08000802805D1C04321680861204614
:101E8000FFF7E8FD06F04000402809D105F04000CA
:101E9000402805D1C04321680861204600F019F9A7
:101EA00006F02000202809D105F02000202805D1C7
:101EB000C043216808612046FFF7CDFD70BD0000DA
:101EC00010B586B00446142101A8FEF7D3F92049C5
:101ED0002068884239D100BF002000901D4800686A
:101EE00040F001001B4908600846006800F001004E
:101EF000009000BF00BF00BF0020009008460068AF
:101F000040F0020008600846006800F002000090FF
:101F100000BF00BF4FF478600190022002900020C3
:101F2000039004900120059001A90B48FFF72AF8BF
:101F300003200190022002900020039004900120D1
:101F4000059001A90548FFF71DF806B010BD000077
:101F5000000001403038024000000240000402400E
:101F600070472DE9F04104460D461646002700BF94
:101F700094F83C00012802D10220BDE8F081012044
:101F800084F83C0000BF36B1042E1BD0082E31D09F
:101F90000C2E5ED145E02946206800F049FD2068FE
:101FA000806940F00800216888612068806920F01D
:101FB00004002168886120688069296908432168D4
:101FC000886148E02946206800F062FD2068806949
:101FD00040F40060216888612068806920F4806096
:101FE0002168886120688069296940EA01202168A8
:101FF000886130E02946206800F07EFD2068C069D5
:1020000040F008002168C8612068C06920F0040021
:102010002168C8612068C069296908432168C861CE
:1020200019E02946206800F09BFD2068C06940F453
:1020300000602168C8612068C06920F48060216860
:10204000C8612068C069296940EA01202168C86127
:1020500001E0012700BF00BF00BF002084F83C0062
:1020600000BF384689E710B504460CB9012010BD01
:1020700094F83D0028B9002084F83C00204600F088
:1020800025F8022084F83D00211D206800F082FC24
:10209000012084F8460000BF84F83E0001213F2063
:1020A0000155402001554120015500BF00BF0120CE
:1020B00084F8420043200155442001554520015534
:1020C00000BF012084F83D000020D0E77047704732
:1020D00070477047704770472DE9F84F04462068F5
:1020E00005682068C668206847694FF00009CA463D
:1020F00005F00F09B9F1000F0AD105F0200038B141
:1021000006F0200020B1204600F0C4FDBDE8F88FA5
:10211000B9F1000F7CD007F0010018B906F49070F7
:10212000002875D005F0010030B106F4807018B1B8
:10213000606C40F00100606405F0040030B107F00D
:10214000010018B1606C40F00200606405F002000C
:1021500030B107F0010018B1606C40F00400606419
:1021600005F0080048B106F0200010B907F00100A2
:1021700018B1606C40F008006064606C002846D0C4
:1021800005F0200028B106F0200010B1204600F034
:1021900081FD20684069C0F3801A606C00F008007F
:1021A00010B9BAF1000F2DD0204600F02DFD2068A7
:1021B000406900F04000402820D100BF00BF2168E6
:1021C000143151E8001F21F040002168143141E82A
:1021D0000002002AF3D100BFE06B50B17F48E16BF1
:1021E0000865E06BFEF724FD88B1E06B016D884760
:1021F0000DE02046FFF76FFF09E009E02046FFF7FA
:102200006AFF04E02046FFF766FF002060647DE778
:10221000206B012878D105F01000002874D006F05A
:1022200010000028FAD000BF00200090206800684D
:10223000009020684068009000BF00BF206840699F
:1022400000F04000402870D1E06B006840681FFA41
:1022500080F8B8F1000F58D0A08D404555DDA4F8A6
:102260002E80E06BC069B0F5807F43D000BF00BF17
:1022700021680C3151E8001F21F4807021680C3175
:1022800041E80002002AF3D100BF00BF00BF21686F
:10229000143151E8001F21F001002168143141E898
:1022A0000002002AF3D100BF00BF00BF2168143133
:1022B00051E8001F21F040002168143141E800027C
:1022C000002AF3D100BF202084F8420000202063C0
:1022D00000BF00BF21680C3151E8001F21F0100041
:1022E00021680C3141E80002002AF3D100BFE06B05
:1022F000FEF748FC02206063A08DE28D801A81B257
:102300002046FFF7E7FE0EE052E0A08D40450AD1DF
:10231000E06BC069B0F5807F05D102206063A18DBC
:102320002046FFF7D7FEF1E6FFE7A08DE18D401ACA
:102330001FFA80F8E08DD0B3B8F1000F37D000BF9E
:1023400000BF21680C3151E8001F21F49070216812
:102350000C3141E80002002AF3D100BF00BF00BFEA
:102360002168143151E8001F21F001002168143167
:1023700041E80002002AF3D100BF202084F8420087
:102380000020206300BF00BF21680C3151E8001F0E
:1023900021F0100021680C3141E80002002AF3D13D
:1023A00000BF0220606341462046FFF793FEADE682
:1023B00005F0800030B106F0800018B1204600F032
:1023C000FDFDA3E605F0400030B106F0400018B175
:1023D000204600F04FFC99E600BF97E6F72B000877
:1023E00010B504460CB9012010BDA06900B100E091
:1023F00000BF94F8410028B9002084F8400020462E
:1024000000F02AF8242084F841002068C06820F4F5
:1024100000502168C860204600F0BAFC20680069BE
:1024200020F49040216808612068406920F02A006B
:10243000216848612068C06840F400502168C86085
:1024400000206064202084F8410084F842000020CD
:10245000606300BFC8E7000010B586B004461421D1
:1024600001A8FDF707FF4D49206888427ED100BFD3
:10247000002000904A48006840F010004849086079
:102480000846006800F01000009000BF00BF00BFC9
:102490000020009042481438006840F00100404994
:1024A000143908600846006800F00100009000BF81
:1024B00000BF00BF002000900846006840F0020006
:1024C00008600846006800F00200009000BF00BFEE
:1024D0004FF400400190022002900020039003205E
:1024E00004900720059001A92E48FEF74BFD082017
:1024F0000190022002900020039003200490072006
:10250000059001A92848FEF73DFD284828490860A4
:102510004FF000604860002125488160C1604FF4A1
:1025200080610161002141618161C161016241629B
:10253000FEF7B2FC08B1FEF713F800BF1C48E063D9
:10254000846300BF194878301A4908604FF0006072
:1025500048604021174881600021C1604FF48061CC
:102560000161002141618161C16100E013E001620C
:102570004162FEF791FC08B1FDF7F2FF00BF0D4884
:10258000A063846300BF002211462520FEF75EFE93
:102590002520FEF747FE06B010BD000000100140E8
:1025A00044380240000002400004024040640240FF
:1025B000E8000020480100207047704700BFFEE798
:1025C00000B58DB0002009900A900B900C9020214E
:1025D00001A8FDF74FFE3448344908604FF48030BD
:1025E00048600021314881600121016100210176AC
:1025F00080F82010C1622E4981620021C160012152
:10260000C161002180F8301001214161FEF73CFAE0
:1026100008B1FDF7A5FF0320099001200A900B9057
:1026200009A92248FEF7B6F808B1FDF799FF032083
:1026300001900120029004200590002003904FF4A7
:1026400080100890002007908DF819008DF8180070
:10265000049001A91548FDF787FF08B1FDF780FF39
:10266000042001900220029001A91048FDF77CFF90
:1026700008B1FDF775FF052001900320029001A924
:102680000A48FDF771FF08B1FDF76AFF06200190C7
:102690000420029001A90548FDF766FF08B1FDF787
:1026A0005FFF0DB000BD00000020014010000020C1
:1026B0000100000F08B500BF002000900E48006820
:1026C00040F480000C4908600846006800F480006F
:1026D000009000BF00BF002211463A20FEF7B6FD71
:1026E0003A20FEF79FFD002211464620FEF7AEFD80
:1026F0004620FEF797FD08BD3038024008B500BF00
:10270000002000900E48006840F001000C4908606D
:102710000846006800F00100009000BF00BF00BF45
:10272000002000900846006840F00200086008465B
:10273000006800F00200009000BF00BF08BD00006C
:102740003038024000B595B00020119012901390DF
:1027500014900F9010901C2108A8FDF78BFD2021EC
:102760006846FDF787FD3F483F4908600020486004
:1027700020213D48816041F26701C1600021016173
:102780000121416100218161FFF7DEF908B1FDF708
:10279000E7FE4FF48050119011A93348FFF752FA29
:1027A00008B1FDF7DDFE3048FFF75DFC08B1FDF72D
:1027B000D7FE70200F90002010900FA92A48FFF735
:1027C00085F908B1FDF7CCFE602008900120099042
:1027D00000200A900B900C900D900E90002208A9FA
:1027E0002148FFF7BEFB08B1FDF7BAFE042208A995
:1027F0001D48FFF7B6FB08B1FDF7B2FE00200990B7
:10280000082208A91848FFF7ACFB08B1FDF7A8FE9D
:102810007020089041F2660009900C2208A9124825
:10282000FFF79FFB08B1FDF79BFE4FF4006000909F
:102830004010019000200290542003904FF48050EB
:102840000490400005900020079069460648FFF775
:1028500003F908B1FDF784FE0348FFF731FB15B01B
:1028600000BD0000000001405800002010B50B48DA
:102870000B4908604FF4E13048600021084881604E
:10288000C16001610C21416100218161C161FFF7DB
:10289000A7FD08B1FDF764FE10BD00000010014067
:1028A000A000002000BFFEE700BFFEE770477047B2
:1028B00010B5FEF743FC10BD00B593B0342106A857
:1028C000FDF7D8FC142101A8FDF7D4FC00BF0020BF
:1028D00000902548006840F0805023490860084671
:1028E000006800F08050009000BF00BF00BF0020D3
:1028F00000901E48006840F440401C4908600846AB
:10290000006800F44040009000BF00BF0220069025
:102910000120099010200A9002200C9000210D91B6
:1029200008210E9154210F9102211091042111913F
:102930000221129106A8FEF71BFE08B1FDF710FE5A
:102940000F20019002200290002003904FF480504D
:10295000049000200590022101A8FEF7C9FC08B1EF
:10296000FDF7FEFD13B000BD40380240007000408E
:102970000348006840F47000014908607047000097
:1029800088ED00E010B50248FFF7E3F910BD000044
:102990005800002010B50268174B984202D0174B20
:1029A000984203D122F070024B681A43124B9842AE
:1029B00008D0124B984205D0114B984202D0114BCF
:1029C000984203D122F44072CB681A4322F080036C
:1029D0004C6943EA04028B68C3620B688362064B4E
:1029E000984201D10B690363036843F00403036059
:1029F00001234361026010BD00000140000C004053
:102A0000004001400048014030B50C46816821F487
:102A10007F4142EA032525432943816030BD0A46B0
:102A2000816821F0700142F007031943816070470B
:102A300030B5026A056A25F00105056243688469BC
:102A400024F0700424F003040D682C4322F00202E9
:102A50008D682A430D4DA84206D100BF22F008021E
:102A6000CD682A4322F00402084DA84207D123F47E
:102A7000807323F400734D692B438D692B434360AE
:102A800084614D684563026230BD00000000014072
:102A900030B5026A056A25F010050562436884694D
:102AA00024F4E04424F440740D6844EA052422F040
:102AB00020028D6842EA05120E4DA84207D100BFE0
:102AC00022F08002CD6842EA051222F04002094D50
:102AD000A84209D123F4806323F400634D6943EADB
:102AE00085038D6943EA8503436084614D6885638E
:102AF000026230BD0000014030B5026A056A25F46B
:102B0000807505624368C46924F0700424F00304EE
:102B10000D682C4322F400728D6842EA05220F4DA5
:102B2000A84207D100BF22F40062CD6842EA052224
:102B300022F48062094DA84209D123F4805323F482
:102B400000534D6943EA05138D6943EA0513436059
:102B5000C4614D68C563026230BD000000000140E1
:102B600030B5036A056A25F4805505624468C26978
:102B700022F4E04222F440720D6842EA052223F476
:102B800000538D6843EA0533064DA84204D124F46E
:102B900080444D6944EA85144460C2614D6805640F
:102BA000036230BD0000014030B50B461446026A96
:102BB000056A25F001050562816921F0F00141EA0D
:102BC000041122F00A021A438161026230BD30B55D
:102BD0000B461446026A056A25F0100505628169F4
:102BE00021F4704141EA043122F0A00242EA0312CA
:102BF0008161026230BD70B50446A56B0020E88596
:102C00002846FFF768FA70BD00BF00BF02680C32AB
:102C100052E8002F22F4907102680C3242E800134F
:102C2000002BF3D100BF00BF00BF0268143252E88E
:102C3000002F22F001010268143242E80013002B39
:102C4000F3D100BF016B01290ED100BF00BF0268A4
:102C50000C3252E8002F22F0100102680C3242E8D8
:102C60000013002BF3D100BF202180F84210002177
:102C70000163704710B504462068C06820F040002A
:102C80002168C860202084F841002046FFF795FCA9
:102C9000002010BDF8B504460025002694F8420037
:102CA000222873D1A068B0F5805F0BD1206948B9A4
:102CB000A66A20684068C0F308003080A06A801CC3
:102CC000A06214E0A56AA068B0F5805F03D0A06898
:102CD00028B9206918B920684068287004E0206885
:102CE000406800F07F002870A06A401CA062E08D60
:102CF000401E80B2E085002846D12068C06820F0E0
:102D000020002168C8602068C06820F480702168B5
:102D1000C8602068406920F00100216848612020D7
:102D200084F8420000206063206B012826D1002037
:102D3000206300BF00BF21680C3151E8001F21F063
:102D4000100021680C3141E80002002AF3D100BFD5
:102D50002068006800F0100010280AD100BF002091
:102D6000009020680068009020684068009000BFD4
:102D700000BFA18D2046FFF7ADF902E02046FFF726
:102D80001BFC0020F8BD01E00020FBE70220F9E772
:102D90002DE9F84F04462068006920F44050E168AE
:102DA0000843216808612169A068084361690843F4
:102DB000E169084300902068C06849F20C618843CB
:102DC000009908432168C8602068406920F4407079
:102DD000A16908432168486176492068884203D088
:102DE00075492068884203D1FEF75AFB814602E00C
:102DF000FEF746FB8146E069B0F5004F6CD102203A
:102E00006168A0FB015003461920A9FB0070014630
:102E10002A463846FDF7F6F96421B0FBF1F04FEA97
:102E2000001A02206168A0FB01510B461920A9FB82
:102E300000712A463846FDF7E5F9834602206168AD
:102E4000A0FB015003461920A9FB00712A46384611
:102E5000FDF7D8F96421B0FBF1F000EBC00101EB04
:102E60000010ABEB8000322101EBC0006421B0FB0D
:102E7000F1F000F0F8000AEB400A02206168A0FBC4
:102E8000015003461920A9FB007001462A46384626
:102E9000FDF7B8F9834602206168A0FB01500346A4
:102EA0001920A9FB00712A463846FDF7ABF96421C9
:102EB000B0FBF1F000EBC00101EB0010ABEB8000C8
:102EC000322101EBC0006421B0FBF1F000F00700FB
:102ED0005044216888606AE004206168A0FB0150CA
:102EE00003461920A9FB007001462A463846FDF723
:102EF00089F9824604206168A0FB0150034619202D
:102F0000A9FB007001462A463846FDF77BF964218B
:102F1000B0FBF1F000EBC00101EB0010AAEB800068
:102F2000322101EB00106421B0FBF1F000F0F00A57
:102F300004206168A0FB017003461920A9FB005121
:102F40003A462846FDF75EF96421B0FBF1F00AEB42
:102F5000001A04206168A0FB01510B461920A9FB4F
:102F600000712A463846FDF74DF983460420616812
:102F7000A0FB015003461920A9FB007001462A4618
:102F80003846FDF73FF96421B0FBF1F000EBC001DA
:102F900001EB0010ABEB8000322101EB001064214B
:102FA000B0FBF1F000F00F00504421688860BDE8EC
:102FB000F88F00000010014000140140014691F814
:102FC0004100212828D18868B0F5805F0BD10869BD
:102FD00048B90A6A1088C0F308000B685860086A8C
:102FE000801C086205E00B6A581C086218780B68A0
:102FF0005860C88C401E80B2C88458B90868C06840
:1030000020F080000B68D8600868C06840F040007D
:103010000B68D860002070470220FCE710B502481A
:10302000FFF75AF810BD0000A000002000BFFEE727
:1030300002480068C0F30220704700000CED00E079
:1030400010B5002804DB0A07130E054A135406E0E6
:103050000A07140E034A00F00F031B1FD45410BDBF
:1030600000E400E018ED00E002E008C8121F08C10B
:10307000002AFAD170477047002001E001C1121FF9
:10308000002AFBD17047FEF765F8FFF715FCFFF744
:1030900035FBFFF70FFBFFF7E9FBFFF791FAFFF7AF
:1030A00051FB00BFFEE700061016000610160000D8
:1030B00000000000000001020304060708090000E8
:1030C0000000010203040000E830000800000020B6
:1030D0001000000068300008F830000810000020E0
:1030E0009805000078300008000000001000000083
:0830F000010000000024F400BF
:04000005080001C925
:00000001FF
