:020000040800F2
:10000000380B0020E1010008554A0008973B000822
:10001000FD440008F1060008395400080000000003
:100020000000000000000000000000009F4A0008DF
:10003000D70A0008000000009D4A0008AD4B0008E8
:10004000FB010008FB010008FB010008FB010008A0
:10005000FB010008FB010008FB010008FB01000890
:10006000FB010008FB010008FB010008FB01000880
:10007000FB010008FB010008FB010008FB01000870
:10008000FB010008FB01000811040008000000004B
:10009000000000000000000000000000FB0100085C
:1000A000814C0008FB010008FB010008FB0100086F
:1000B000000000000000000000000000FB0100083C
:1000C000FB010008FB010008FB010008FB01000820
:1000D000FB01000829540008FB0100080000000093
:1000E000FB010008FB010008000000000000000008
:1000F000000000000000000000000000FB010008FC
:100100000000000000000000FB01000800000000EB
:100110000000000000000000FB01000800000000DB
:10012000FB010008FB010008D9090008FB010008D9
:10013000FB010008000000000000000000000000BB
:1001400000000000000000000000000000000000AF
:10015000FB010008FB010008E9090008FB01000899
:10016000000000000000000000000000000000008F
:10017000000000000000000000000000000000007F
:10018000FB010008FB010008000000000000000067
:1001900000000000FB01000800000000000000005B
:1001A000000000000000000000000000000000004F
:1001B000000000000000000000000000FB0100083B
:1001C000FB010008FB010008DFF810D000F0D6F8B2
:1001D00000480047D95C0008AFF30080380B0020CE
:1001E0000648804706480047FEE7FEE7FEE7FEE7D1
:1001F000FEE7FEE7FEE7FEE7FEE7FEE76D4C0008E0
:10020000C90100082DE9F05F0546002092469B4693
:1002100088460646814640241BE02846414647461C
:10022000224600F057F853465A46C01A914110D35F
:1002300011461846224600F03EF82D1A67EB0108D9
:100240004F4622460120002100F035F817EB000947
:100250004E41201EA4F10104DFDC484631462A4607
:100260004346BDE8F09FD2B201E000F8012B491EE1
:10027000FBD270470022F6E710B513460A46044643
:100280001946FFF7F0FF204610BD30B50B4601467A
:1002900000202022012409E021FA02F59D4205D325
:1002A00003FA02F5491B04FA02F52844151EA2F1CF
:1002B0000102F1DC30BD202A04DB203A00FA02F111
:1002C000002070479140C2F1200320FA03F3194344
:1002D00090407047202A04DB203A21FA02F00021E6
:1002E000704721FA02F3D040C2F120029140084346
:1002F00019467047F0B400F0004221F0004120F0B0
:100300000040CE0DC30DC1F3160141F40001C0F34E
:1003100016004C42154640F40000761E09E010EB32
:10032000440002D582F0004240428842F7D84000A3
:100330005B1EB342F9DA18B1F0BC002100F039B805
:100340002846F0BC7047002801DBC0F100400029BE
:1003500001DBC1F10041814202D24FF0004004E0D4
:100360004FF0005001D14FF0C0404FEA2062EFF350
:10037000008162F31F6181F300887047064C074DCE
:1003800006E0E06840F0010394E807009847103465
:10039000AC42F6D3FFF71CFF94610008B46100087B
:1003A0000029A8BF7047401C490008BF20F0010089
:1003B000704710B4B0FA80FC00FA0CF050EA010467
:1003C00004BF10BC704749B1CCF1200421FA04F4F9
:1003D00011FA0CF118BF012121430843A3EB0C01D2
:1003E000CB1D4FEA00614FEA102042BF002010BC35
:1003F000704700EBC35010440029A4BF10BC7047E5
:10040000401C490008BF20F0010010BC70470000EC
:1004100010B5024801F01EFB10BD0000A80000202E
:1004200055494A6822F440324A604A6843681A4390
:100430004A600268526822F4807203685A60026857
:100440005368026943EA022203685A6002685268EC
:1004500022F0407203685A600268526883681A4347
:1004600003685A600268926822F4006203689A6026
:1004700002689268C3681A4303689A603F4B826AB5
:100480009A4218D00268926822F0706203689A60FB
:1004900002689268836A1A4303689A6002689268E5
:1004A00022F0405203689A6002689268C36A1A4355
:1004B00003689A600BE00268926822F07062036839
:1004C0009A600268926822F0405203689A6002685B
:1004D000926822F0020203689A6002689368027EC2
:1004E00043EA420203689A602022125CA2B10268C9
:1004F000526842F4006203685A600268526822F44B
:10050000604203685A6002685368426A521E43EAB6
:10051000423203685A6005E00268526822F40062C1
:1005200003685A600268D26A22F470020368DA62D1
:100530000268D36A828B521E43EA02520368DA626F
:100540000268926822F4007203689A6002689368F5
:1005500090F8302043EA422203689A600268926869
:1005600022F4806203689A6002689368426943EAF1
:10057000822203689A607047002301400100000F47
:1005800070B52DED028B0121254801F0E1F880B214
:1005900008EE100A0221224801F0DAF884B20321A1
:1005A0001F4801F0D5F885B204211D4801F0D0F8AC
:1005B00086B2A5F5006000EE100AF8EEC00A9FEDC5
:1005C000191A9FED190A00EE810A184880ED060AF3
:1005D000A6F5006000EE100AF8EEC00A9FED111AB1
:1005E0009FED130A00EE810A104880ED070A90ED96
:1005F000060AD0ED070A30EE200AB1EE400A80ED7F
:10060000080AB8EE480ADFED0B0A20EE200A80ED5A
:10061000090A204600F010F8BDEC028B70BD000006
:10062000A80000209D11253DB81E853F980600209A
:100630008FC2753E3ACC973C10B5044640F6E44173
:1006400004FB01F0C11700EB1151091300EE101A61
:10065000B8EEC00AF0EE403A9FED0B0A23EE800A96
:10066000DFED0A0A70EEE30A80EE201AB0EE414A8E
:10067000B0EE440A00F03EF80548D0ED000A30EE36
:10068000200A80ED000A10BD0000164300404E45D0
:100690007C0000201148008842F20F7188420ED180
:1006A0000F4890ED000ADFED0F0A80EE201A0E4889
:1006B00080ED001A9FED0D0A094880ED000A0748F9
:1006C0000088401C054908800846008842F21071E5
:1006D000884202D100200149088070478400002030
:1006E0007C00002000401C4680000020000000002C
:1006F00000BFFEE730B5F0EE400A354C94ED000A3D
:10070000B4EEE00AF1EE10FA02DDBFEE000A30BDF1
:100710002F4C94EDD20AB4EEE00AF1EE10FA02D2B8
:10072000B8EE000AF3E70022D22369202CE0284C1F
:1007300004EB800494ED000AB4EEE00AF1EE10FA46
:1007400006DD03469C1804EBD475C5F347001BE097
:100750001F4C04EB800494ED000AB4EEE00AF1EEC5
:1007600010FA06D202469C1804EBD475C5F3470074
:100770000AE000EB8004A4F1C80100EE101AB8EE04
:10078000C01AB0EE410AC2E79C1A012CCFD100EB8F
:100790008004A4F1C8010E4C04EB8204D4ED001ACD
:1007A0000B4C04EB830494ED002A30EEE10AF1EEE9
:1007B000042A20EE220A32EE613AC0EE032A00EE4D
:1007C000101AB8EEC00A32EE801AB0EE410A9EE767
:1007D000D05D000810B51148007878B11048007855
:1007E00060B110480078404240B20F4908700120C3
:1007F0000E4908700EA003F01BFB0DE009480078BD
:10080000404240B207490870084690F90000064986
:1008100008700CA003F00CFB10BD000024000020A9
:1008200027000020250000202600002028000020AE
:10083000554152545F4449525F52414D505F5354A9
:1008400041525400554152545F4449525F544F47FE
:10085000474C450010B5024607E012F8013B11F87D
:10086000014BA34201D0002010BD107810B10878D0
:100870000028F2D1107818B9087808B90120F3E7F8
:100880000020F1E710B50F484078042802D00D4849
:10089000807848B103200B4948700020887004F02C
:1008A0001BF909A004F0CAFD01200C4908700C488E
:1008B000007810B901200A4908700AA003F0B8FABC
:1008C00010BD0000980600204F4B204641554C5467
:1008D0005F52455345540D0A0000000024000020DB
:1008E00027000020554152545F52554E0000000031
:1008F00010B50446032C03D905A004F09FFD10BDDC
:100900000748047007A003F093FA00BFF7E7000060
:10091000455252204C564C20302E2E330D0A0000EA
:1009200027000020554152545F4C564C00000000F7
:1009300010B50648007820B104480078401E0349ED
:10094000087003A003F074FA10BD00002700002017
:10095000554152545F53504545445F444F574E00F4
:1009600010B506480078032804D204480078401CDB
:100970000249087002A003F05BFA10BD27000020B6
:10098000554152545F53504545445F555000000057
:1009900010B5024607E012F8013B11F8014BA342E3
:1009A00001D0002010BD08780028F4D10120F9E71B
:1009B00010B50020034908700349087003A003F034
:1009C00037FA10BD24000020280000205541525461
:1009D0005F53544F5000000010B5024801F0FEF97B
:1009E00010BD0000C801002010B5024801F0F6F962
:1009F00010BD000028020020014608781038182396
:100A0000B0FBF3F20848805CC865032A05D9086882
:100A10006FF30900001D886503E008686FF30900A3
:100A20008865886D70470000B05D000801460020B1
:100A30008A6A8B69CBB932B1012A0DD0022A03D060
:100A4000032A10D10EE000BFCB6A03F08073B3F12C
:100A5000807F00D1012007E0CB6AB3F1C07F00D1D5
:100A6000012001E000E000BF34E08B69B3F5005FD6
:100A70001AD132B1012A07D0022A03D0032A11D198
:100A80000AE000BF01200EE0CB6A03F08073B3F1EF
:100A9000807F00D1012006E0CB6AB3F1C07F00D196
:100AA000012000E000BF15E032B1012A05D0022A82
:100AB00004D0032A0CD103E000BF00BF012008E0EE
:100AC000CB6A03F08073B3F1807F00D1012000E096
:100AD00000BF00BF7047704772B600BFFEE700005E
:100AE00070B52DED0A8BB0EE40AAF0EE60AAB0EE24
:100AF00041BAF0EE61BA05460C4616463AEE6A0A6D
:100B000085ED000A95ED000ADFEDCA0A20EE200A05
:100B100084ED000A96ED000AD5ED000A9FEDC61A95
:100B200000EE810A85ED000A95ED000AF1EE040A57
:100B3000B4EEE00AF1EE10FA06DD95ED000AF1EEF2
:100B4000040A30EE608A11E095ED000AF9EE040A1D
:100B5000B4EEE00AF1EE10FA02DB9FEDB88A05E090
:100B600095ED000AF9EE040A30EE608AB5EEC08A0F
:100B7000F1EE10FA02D2FFEE008A09E0B5EEC08A6B
:100B8000F1EE10FA02DDF7EE008A01E0F0EE488A9D
:100B9000DFEDAB0AB0EE680A04F0B8FDF0EE408A73
:100BA00094ED000AB5EEC00AF1EE10FA02D2BFEEE3
:100BB000009A0BE094ED000AB5EEC00AF1EE10FACF
:100BC00002DDB7EE009A01E094ED009ADFED9C0A99
:100BD000B0EE490A04F09AFDF0EE409AB5EEC08AF4
:100BE000F1EE10FA2CD0F5EEC08AF1EE10FA08D230
:100BF000B1EE680ABCEEC00A10EE100A404240B2E4
:100C000004E0BCEEE80A10EE100A40B2F5EEC09A1D
:100C1000F1EE10FA08D2B1EE690ABCEEC00A10EE8D
:100C2000101A494249B204E0BCEEE90A10EE101A6B
:100C300049B2884204D19FED810AF0EE409A03E068
:100C400094ED000AF0EE409A95ED000AF1EE040AE8
:100C5000B4EEE00AF1EE10FA04DDB1EE040A85ED1F
:100C6000000A0CE095ED000AF9EE040AB4EEE00A81
:100C7000F1EE10FA03D2B9EE040A85ED000A3BEE5C
:100C80006B0AB0EE409A9FED6B0A29EE000AB0EEB7
:100C9000408AB5EEC08AF1EE10FA04D2BFEE000A27
:100CA00084ED000A0BE0B5EEC08AF1EE10FA04DD27
:100CB000B7EE000A84ED000A01E084ED008AD4ED6D
:100CC000000AB0EE600A04F0A1FCB0EE40CADFED0D
:100CD0005C0A04F01BFDF0EE408A96ED010ADFEDA0
:100CE000560A09EE200A84ED000A94ED000AF1EE9E
:100CF000040AB4EEE00AF1EE10FA08DD94ED000A01
:100D0000F1EE040A30EE600AB0EE409A15E094ED80
:100D1000000AF9EE040AB4EEE00AF1EE10FA04DB80
:100D20009FED460AB0EE409A07E094ED000AF9EE16
:100D3000040A30EE600AB0EE409A94ED000AF1EE3B
:100D4000040AB4EEE00AF1EE10FA04DDB1EE040A92
:100D500084ED000A0CE094ED000AF9EE040AB4EE0A
:100D6000E00AF1EE10FA03D2B9EE040A84ED000AAB
:100D700096ED000ADFED330A00EEA90A86ED000ABF
:100D8000B5EEC09AF1EE10FA04D2BFEE000AF0EE12
:100D9000409A0BE0B5EEC09AF1EE10FA04DDB7EE22
:100DA000000AF0EE409A01E0F0EE499ADFED240AE5
:100DB000B0EE690A04F0AAFCF0EE409AB5EEC09AD3
:100DC000F1EE10FA2BD0F5EEC09AF1EE10FA08D23F
:100DD000B1EE690ABCEEC00A10EE100A404240B201
:100DE00004E0BCEEE90A10EE100A40B2F5EEC08A4B
:100DF000F1EE10FA08D2B1EE680ABCEEC00A10EEAD
:100E0000101A494249B204E0BCEEE80A10EE101A8A
:100E100049B2884203D19FED090AB0EE408A96EDAF
:100E2000010ADFED080A00EE880A86ED010ABDEC32
:100E30000A8B70BDE4CB9642FDAD803D0000000002
:100E40000000804317B7D13890ED011A21EE001A47
:100E500081ED001A91ED001AD0ED001A00EEE11AB2
:100E600081ED001A90ED011A21EE201A82ED001A90
:100E700092ED001AD0ED001A00EE211A82ED001A50
:100E8000704790ED011A21EE001A81ED001A90EDE5
:100E9000001A21EE201A82ED001A91ED001AD2ED0F
:100EA000001A31EE211A81ED001A90ED001A21EEA0
:100EB000001A82ED001A92ED001AD0ED011A10EE20
:100EC000A11A82ED001A704710B52DED088BF0EED7
:100ED000409AB0EE60AAF0EE418A0446BEEE000AE7
:100EE00029EE800AB0EE408A9FED370A2AEE000A0A
:100EF000B0EE409A38EE090AF0EE40AA38EE490A00
:100F0000B0EE409AF0EE6A0AB0EE690A04F0DAFB3D
:100F1000B0EE40BAF0EE490A04F0D4FBF0EE40BA6D
:100F2000F0EE6A0AB0EE690A04F0A8FBB0EE40BA2F
:100F3000F0EE490A04F0A2FB3BEE800AFEEE000A46
:100F400020EE200AB0EE408A38EE290A84ED000A2D
:100F500038EE2A0A84ED010A38EE090A84ED020A05
:100F600094ED000AF1EE400A80EEA80AF6EE000ABF
:100F700030EE200ADFED150A20EE200A84ED000A8B
:100F800094ED010AB1EE400AC0EE280AB6EE000A5E
:100F900030EE800ADFED0D0A20EE200A84ED010A12
:100FA00094ED020AB1EE400AC0EE280AB6EE000A3D
:100FB00030EE800ADFED050A20EE200A84ED020AF9
:100FC000BDEC088B10BD0000D7B35D3F00388345F2
:100FD00010B500200E49096808609FED0E0A0E4802
:100FE00080ED000A9FED0B0A80ED010A9FED090AD2
:100FF00080ED020A9FED070A80ED030A9FED050AC6
:1010000080ED040A28210548FFF734F910BD0000DF
:101010001C61000800000000D4060020EC0600203F
:1010200000B52DED088B89B0FE4890ED000AFE4812
:1010300080ED000AD0ED000AB0EE600A04F0BEFBBD
:10104000B0EE408AF848D0ED000AB0EE600A04F035
:1010500035FAF0EE408A8DED048ACDED058AF3482D
:1010600090ED010AD0ED020A70EE200A90ED000A20
:10107000B6EE001A00EEC10ADFEDED0A20EE200AFE
:10108000F0EE409A90ED010AD0ED020A30EE600ACF
:10109000DFEDE80A20EE200AB0EE409A03AA694686
:1010A00004A8F0EE490AB0EE690AFFF7EAFEDE484E
:1010B00090ED050ADB48D0ED010A70EE600ADE48CB
:1010C00090ED001AD74890ED020A10EE810ADA4836
:1010D000D0ED010A80EE201AD34880ED011A90ED80
:1010E000010ADFEDD60AB4EEE00AF1EE10FA04DDF3
:1010F0009FEDD20A80ED010A0DE0CB4890ED010A88
:10110000DFEDCF0AB4EEE00AF1EE10FA03D29FED64
:10111000CC0A80ED010AC448D0ED010AB0EE601A95
:10112000C248D0ED040AB0EE600ABE4A20326946D9
:1011300002A8DDED031ADDED000AFFF7D1FC02AADB
:1011400001A904A8DDED000A9DED020AFFF77CFE6F
:10115000B64890ED030AB0EE401A06A8DDED020A8B
:101160009DED010AFFF7B0FEAE4890ED030ADFEDFA
:10117000B50A00EEE90AAC4880ED020AA94890EDF4
:10118000040ADFEDB00A00EEC90AA74880ED030AA1
:1011900090ED030A20EE280AD0ED020A08EE600A5C
:1011A000F0EE408AA44890ED040AD0ED030A60EE08
:1011B000200A9C4890ED050A00EEA80AB0EE408A8D
:1011C000B0EEC80ADFEDA00A20EE200AD0ED060A34
:1011D0009FED9E1A01EE200A80ED060A90ED060AA8
:1011E000DFED9B0A20EE200A8DED000A9DED000A3E
:1011F000F7EE000AB4EEE00AF1EE10FA04DDB7EE05
:10120000000A8DED000A0CE09DED000ADFED910A69
:10121000B4EEE00AF1EE10FA03D29FED8E0A8DEDE6
:10122000000A854890ED020ADDED000A20EE20AAB2
:101230007D48D0ED020A90ED021A9FED870A00EE7C
:10124000C10AD0ED030A90ED031A00EEC10A8DED3C
:10125000030A744890ED060ADFED800A20EE200AAA
:101260008DED000A9DED000ADFED7D0AB4EEE00A87
:10127000F1EE10FA04DD9FED7A0A8DED000A0CE024
:101280009DED000ADFED770AB4EEE00AF1EE10FA08
:1012900003D29FED740A8DED000A634890ED020AB7
:1012A000DDED030A20EE200ADDED000A60EE20AA43
:1012B00090ED030ADDED030A20EE200ADDED000AC1
:1012C00020EE20BA90ED000ADFED670A00EE880AF2
:1012D000544880ED000A90ED000ADFED640AB4EE98
:1012E000E00AF1EE10FA08DD90ED000ADFED5F0A8A
:1012F00030EE600A80ED000A0FE04A4890ED000AE7
:10130000B5EEC00AF1EE10FA07D290ED000ADFED5B
:10131000570A30EE200A80ED000A9FED550A28EEAC
:10132000000A414880ED040A90ED040A3D48D0EDE2
:10133000010A30EE600A8DED000A3F4890ED000A88
:10134000F0EE080A20EE200A8DED030A354890EDF4
:10135000070A3948D0ED010A20EE200ADDED000A27
:10136000B0EE001A60EE810A9DED031A00EE810ACC
:101370002C48D0ED020A70EE200A90ED010A9FED94
:101380003A1A00EE810A80ED010A90ED010ADFEDC4
:10139000390AB4EEE00AF1EE10FA04DB9FED350AEB
:1013A00080ED010A0DE01F4890ED010ADFED320AE1
:1013B000B4EEE00AF1EE10FA03D89FED2F0A80EDAB
:1013C000010A184890ED020ADDED030A60EEA00A5A
:1013D0009DED001A60EE810A9FED231A00EE810A4E
:1013E00080ED020A90ED030ADDED010A49EECA0A1A
:1013F00070EEAA0A9FED1C1A00EE810A80ED030A26
:1014000090ED040ADDED020A49EE4A0A70EE8B0AFD
:101410009FED151A00EE810A80ED040A064890ED52
:10142000030A2BE0EC060020D4060020140700205D
:10143000ABAA2A3F3ACD133F8800002000008C421F
:1014400000008CC217B751386F12833BDBF97E3F27
:101450000AD7A33BCDCC4C3FBE3786350024F44899
:1014600000E6AA4900E62A4917B7D138DB0FC94080
:101470009F9DAE3F00803B4600803BC620EE000AA9
:1014800060EE280A0F4890ED050A1FED091A00EEDC
:10149000810A80ED050A0C4890ED010A094880EDAB
:1014A000070A9DED060A094880ED000A9DED070A2E
:1014B00080ED010A9DED080A80ED020A09B0BDEC3D
:1014C000088B00BDEC060020D40600202C0700206D
:1014D00030B50246854C8869A04200D000BF00BFED
:1014E00092F83C00012801D1022030BD012082F891
:1014F0003C0000BF0868092816D91068C0680C783D
:101500000A3C04EB44050724AC40A0431468E060A7
:101510000C780A3C04EB44048868A0401468E46832
:1015200020431468E06013E0106800690C7804EB55
:1015300044050724AC40A043146820610C7804EBF8
:1015400044048868A040146824692043146820611A
:101550001068806B20F440101468A0631068846BDE
:10156000088A401E44EA00501468A0630879C01C31
:101570000C7C001B00EB80041F20A0401468A46BAF
:101580008443106884630879C01C0C7C001B00EB4A
:101590008004088880B2A0401468A46B20431468BB
:1015A000A063524C8869A04218D01068806820F46B
:1015B00070201468A060106880688C6920431468EB
:1015C000A0601068806820F440101468A060106863
:1015D0008068CC6920431468A0600BE010688068C4
:1015E00020F470201468A0601068806820F4401017
:1015F0001468A060487D30B11068406840F4806095
:101600001468606005E01068406820F48060146829
:101610006060087D30B11068406840F48050146804
:10162000606005E01068406820F4805014686060D5
:101630004868012804D002280FD0032827D119E0D8
:10164000106840696FF30B001468606110684069AE
:10165000CC6820431468606126E0106880696FF3ED
:101660000B001468A06110688069CC68204314687E
:10167000A06119E01068C0696FF30B001468E061A5
:101680001068C069CC6820431468E0610CE0106801
:10169000006A6FF30B00146820621068006ACC685F
:1016A00020431468206200BF00BF114B114C10682A
:1016B000A04206D10868122803D1586840F480007F
:1016C00058600C4C1068A04209D10868102802D05C
:1016D0000868112803D1586840F40000586000BF22
:1016E000002082F83C0000BF00BFFEE601000F00B2
:1016F000002301400020014010B504461149206834
:101700000968884200D010BD0122D1030E4800F0C4
:10171000EDFD00200D4909684862FEF731FF02F037
:101720003DFA03F0A5F803F001F803F047F9FEF7DE
:10173000B1FF00224FF40041034800F0D7FD00BF85
:10174000E1E70000A800002000000240380100206E
:1017500008B5024600200090401F13681860012958
:1017600011D002290BD0032905D004290FD110680C
:10177000806C00900CE01068406C009008E01068ED
:10178000006C009004E01068C06B009000E000BFA7
:1017900000BF009808BD000038B501460020009049
:1017A0000022002300BF91F83C00012801D1022053
:1017B00038BD012081F83C0000BF0868806800F057
:1017C0000100A0B90868806840F001000D68A860B9
:1017D00038480068384DB0FBF5F000EB4000009051
:1017E00002E00098401E009000980028F9D1086897
:1017F000806800F00100002851D0086C42F2010519
:10180000A84340F480500864086C00F4807008B964
:101810000020486400BF002081F83C0000BF401F4A
:101820000D6828600868406840F080000D686860B6
:10183000224C606800F01F00B0B90868806800F4AE
:10184000401008B9012000E0002002460868406806
:10185000012525EA90230AB303B30868806840F4A1
:1018600080000D68A86022E00868806800F44010DD
:1018700008B9012000E00020024608684068012500
:1018800025EA90230E4D0868A84210D132B12BB141
:101890000868806840F480000D68A86007E0086C64
:1018A00040F010000864486C40F0010048640020DB
:1018B0007EE700002000002040420F00002301408E
:1018C0000020014038B502460020009000BF92F889
:1018D0003C00012801D1022038BD012082F83C00E3
:1018E00000BF0868092816D91068C0680C780A3C3F
:1018F00004EB44050724AC40A0431468E0600C7876
:101900000A3C04EB44048868A0401468E46820435F
:101910001468E06013E0106800690C7804EB44057B
:101920000724AC40A043146820610C7804EB440405
:101930008868A040146824692043146820614868BE
:10194000072817D21068406B0C79641E04EB8405DD
:101950001F24AC40A04314686063088880B20C79EF
:10196000641E04EB8404A0401468646B2043146874
:10197000606331E048680D2817D21068006B0C795D
:10198000E41F04EB84051F24AC40A04314682063CB
:10199000088880B20C79E41F04EB8404A04014682A
:1019A000246B20431468206316E01068C06A0C7929
:1019B0000D3C04EB84051F24AC40A0431468E06296
:1019C000088880B20C790D3C04EB8404A0401468B4
:1019D000E46A20431468E062194B1A4C1068A04274
:1019E00006D10868122803D1586840F48000586076
:1019F000144C1068A0421CD10868102802D0086856
:101A0000112816D1586840F4000058600868102862
:101A10000FD10D4800680D4CB0FBF4F000EB8000D6
:101A20004000009002E00098401E009000980028BE
:101A3000F9D100BF002082F83C0000BF00BF4BE797
:101A400000230140002001402000002040420F0000
:101A5000704770472DE9F0410446002500262068B4
:101A600007682068D0F8048007F0020508F0200617
:101A700095B38EB3206C00F0100018B9206C40F4C0
:101A8000007020642068806800F04050E8B9207E33
:101A9000D8B92068C06A00F4700020B1206880685E
:101AA00000F4806088B92068406820F02000216838
:101AB0004860206C20F480702064206C00F480501A
:101AC00018B9206C40F0010020642046FFF7C0FFE9
:101AD0006FF012002168086007F0040508F0800626
:101AE000E5B3DEB3206C00F0100018B9206C40F4B0
:101AF000005020642068806800F4401038BB2068E3
:101B0000806B00F4401020B12068806800F4806091
:101B1000E8B92068406800F48060C0B92068806837
:101B200000F0405098B9207E88B92068406820F0C5
:101B3000800021684860206C20F480502064206C74
:101B400000F4807018B9206C40F001002064204639
:101B5000FFF7D2FD6FF00C002168086007F0010567
:101B600008F0400685B17EB12068006800F00100F1
:101B700050B1206C40F480302064204600F050F8D2
:101B80006FF001002168086007F0200508F080660A
:101B90007DB176B1606C40F0020060646FF02000AF
:101BA000216808602046FFF754FF6FF0200021688D
:101BB0000860BDE8F081000070B5044600250CB94E
:101BC000012070BD1549A06A884200D000BF206C7A
:101BD00030B9204600F026F80020606484F83C000C
:101BE000206C00F0100088B9206C20F4885040F080
:101BF000020020642046FEF713FC00206064206C85
:101C000020F0020040F00100206400E0012500BF48
:101C1000002084F83C0000BF2846D2E70100000FF6
:101C20007047000010B586B00446142101A8FEF7E5
:101C300021FB1D492068884233D100BF002000905D
:101C40001A48006840F48070184908600846006827
:101C500000F48070009000BF00BF00BF0020009023
:101C600012481438006840F0010010491439086027
:101C70000846006800F00100009000BF00BF782017
:101C80000190032002900020039001A9084800F071
:101C90004FFA00221146122000F0BCFB122000F087
:101CA000A5FB06B010BD00000020014044380240F2
:101CB0000000024010B504460CB9012010BD607947
:101CC00020B900202071204600F004F80120607146
:101CD0000020F3E708B50A4A016891420FD100BF1E
:101CE000002100910749096841F48051054A1160BB
:101CF0001146096801F48051009100BF00BF08BD82
:101D0000003002403038024070B50446A56D00F046
:101D1000F3FA064694F83500022808D08020606562
:101D200000BF002084F8340000BF012070BD20688F
:101D3000006820F01600216808602068406920F0E3
:101D4000800021684861206C08B9A06C28B1206827
:101D5000006820F00800216808602068006820F012
:101D600001002168086010E000F0C6FA801B052819
:101D70000BD920206065032084F8350000BF0020C7
:101D800084F8340000BF0320D0E72068006800F02A
:101D900001000028E8D194F85C103F208840A8603A
:101DA000012084F8350000BF002084F8340000BF13
:101DB00000BFBBE7014691F83500022803D0802020
:101DC000486501207047052081F8350008680068E3
:101DD00020F001000A6810600020F3E7F8B504461F
:101DE000002000908C4800684FF41651B0FBF1F7CA
:101DF000A56D2E6894F85C1008208840304098B19A
:101E00002068006800F0040070B12068006820F0CD
:101E100004002168086094F85C1008208840A860DD
:101E2000606D40F00100606594F85C10012088400E
:101E3000304068B12068406900F0800040B194F8FB
:101E40005C1001208840A860606D40F00200606571
:101E500094F85C1004208840304068B12068006825
:101E600000F0020040B194F85C1004208840A860A3
:101E7000606D40F00400606594F85C1010208840AC
:101E8000304078B32068006800F0080050B394F840
:101E90005C1010208840A8602068006800F4802052
:101EA00080B12068006800F4002028B9206CC8B117
:101EB0002046216C884715E0A06C98B12046A16CA3
:101EC00088470FE02068006800F4807028B9206817
:101ED000006820F0080021680860206C10B12046DE
:101EE000216C884794F85C102020884030400028FE
:101EF00065D02068006800F0100000285FD094F8DA
:101F00005C1020208840A86094F83500052828D16E
:101F10002068006820F01600216808602068406989
:101F200020F0800021684861206C08B9A06C28B1BD
:101F30002068006820F008002168086094F85C10B0
:101F40003F208840A860012084F8350000BF0020B1
:101F500084F8340000BF206D10B12046216D884701
:101F6000F8BD2068006800F4802080B12068006817
:101F700000F4002028B9606C10B12046616C8847DD
:101F80001DE0E06BD8B12046E16B884717E0206880
:101F9000006800F4807068B92068006820F01000C4
:101FA00021680860012084F8350000BF002084F813
:101FB000340000BFE06B10B12046E16B8847606DD4
:101FC00038B3606D00F00100F0B1052084F83500F1
:101FD0002068006820F001002168086000BF0098B8
:101FE000401C0090B84200D905E02068006800F06D
:101FF00001000028F3D100BF012084F8350000BFA4
:10200000002084F8340000BFE06C10B12046E16C81
:10201000884700BFA4E70000200000202DE9F04120
:102020000446002500F068F9074614B90120BDE810
:10203000F081606A00B100BF022084F8350000BF63
:10204000002084F8340000BF2068006820F0010000
:10205000216808600AE000F04FF9C01B052805D987
:1020600020206065032084F83500E0E720680068E0
:1020700000F001000028EED12068056821480540E5
:10208000D4E901010843E168084321690843616913
:102090000843A1690843E1690843216A08430543ED
:1020A000606A042803D1D4E90B0108430543206882
:1020B00005602068456925F00705606A0543606A88
:1020C00004280DD1A06A0543E06A48B12046FEF716
:1020D000ADFC28B140206065012084F83500A6E7FA
:1020E000206845612046FEF787FC064694F85C10A0
:1020F0003F208840B06000206065012084F83500F2
:10210000002094E73F8010F070B5044600F0F4F82A
:1021100006462546681C10B104480078054400BFF7
:1021200000F0EAF8801BA842FAD370BD1C00002022
:10213000F8B503460A460025002400200021BDE032
:10214000012606FA01F5166806EA0504AC4274D1C8
:10215000167906F00306012E04D0167906F0030660
:10216000022E13D198684F000326BE40B0434F00A3
:10217000D668BE4030439860586801268E40B04310
:102180001679C6F300168E4030435860167906F073
:102190000306032E09D0D8684F000326BE40B04383
:1021A0004F009668BE403043D860167906F00306AB
:1021B000022E13D1CF0803F1200656F827004E0750
:1021C000F70E0F26BE40B0434F07FF0E1669BE4004
:1021D0003043CF0803F1200646F8270018684F0067
:1021E0000326BE40B043167906F003064F00BE40FA
:1021F00030431860566806F44036002E5DD000BFAC
:10220000002600962F4E366846F480462D4F3E60DD
:102210003E46366806F48046009600BF00BF2A4E50
:102220008F0856F827008E07370F0F26BE40B043A1
:10223000264EB34202D100260BE03EE0244EB342CC
:1022400001D1012605E0234EB34201D1022600E070
:1022500007268F073F0FBE4030431B4E8F0846F8BE
:1022600027001D4E3068A043566806F4801606B15C
:102270002043194E3060361D3068A043566806F47E
:10228000001606B12043144E361D3060124E361F24
:102290003068A043566806F4003606B120430E4E5F
:1022A000361F3060361F3068A043566806F480360B
:1022B00006B12043084E083E3060491C1029FFF447
:1022C0003FAFF8BD443802400838014000000240EA
:1022D0000004024000080240083C01400246136925
:1022E0000B400BB1012000E0002070470AB1816172
:1022F00001E00B04836170470148006870470000EB
:102300001400002003480068034909780844014983
:1023100008607047140000201C00002010B50D4814
:10232000006840F400700B4908600846006840F4FB
:10233000806008600846006840F4807008600320F0
:1023400000F0A6F80F2000F007F800F02BF80020AE
:1023500010BD0000003C024070B504460E480078F5
:102360004FF47A71B1FBF0F00C490968B1FBF0F55C
:10237000284600F039FC08B1012070BD102C07D2AE
:1023800000222146501E00F045F80548046001E097
:102390000120F2E70020F0E71C00002020000020D0
:1023A0001800002008B500BF002000900E4800680B
:1023B00040F480400C4908600846006800F4804002
:1023C000009000BF00BF00BF00200090081F006801
:1023D00040F08050091F08600846006800F08050F7
:1023E000009000BF00BF08BD4438024001460846C7
:1023F00000280DDB00BF00BF00F01F0301229A4040
:1024000043099B0003F1E023C3F8002100BF00BF94
:1024100000BF70472DE9F05F80460D461646002745
:1024200003F030F8074639462A46334601F00700E4
:10243000C0F1070ABAF1040F02D94FF0040A01E013
:10244000C0F1070AD14600F1040ABAF1070F02D21F
:102450004FF0000A01E0A0F1030AD4464FF0010A50
:102460000AFA09FAAAF1010A0AEA020A0AFA0CFAB5
:102470004FF0010B0BFA0CFBABF1010B0BEA030B5A
:102480004AEA0B042146404603F004F8BDE8F09FF9
:1024900000BF00F00702064B19684FF6FF03194012
:1024A000044B0B4343EA0221014B196000BF704704
:1024B0000CED00E00000FA0570B504460D460CB9BD
:1024C000012070BD5848006800F00700A84209D2FA
:1024D00055490D700846006800F00700A84201D079
:1024E0000120EEE7207800F0020002281DD12078BC
:1024F00000F00400042805D14C48006840F4E05086
:102500004A490860207800F00800082805D14748AB
:10251000006840F46040454908604448006820F085
:10252000F000A168084341490860207800F00100EC
:10253000A8B36068012807D13C4808380068C0F398
:102540004040B8B90120BCE76068022802D060684A
:10255000032807D1354808380068C0F3406048B9FF
:102560000120AEE7314808380068C0F3400008B9E0
:102570000120A6E72D48006820F0030061680843A9
:102580002A490860FFF7B8FE064609E0FFF7B4FEE7
:10259000801B41F28831884202D9032091E707E08D
:1025A0002248006800F00C006168B0EB810FEDD1AB
:1025B0001D48006800F00700A84209D91A490D70AB
:1025C0000846006800F00700A84201D0012078E723
:1025D000207800F00400042807D11448006820F493
:1025E000E050E168084311490860207800F00800D5
:1025F000082808D10D48006820F46040216940EAAD
:10260000C1000A49086000F03FF808490968C1F3B1
:102610000311074A515CC840064908600648006833
:10262000FFF79AFE00204CE7003C024008380240C9
:10263000B85D000820000020180000200148006854
:10264000704700002000002000B5FFF7F7FF0449A5
:102650000968C1F38221034A515CC84000BD0000F3
:1026600008380240C85D000800B5FFF7E7FF0449DD
:102670000968C1F34231034A515CC84000BD000003
:1026800008380240C85D00082DE9F0470024002505
:102690000026A1462548006800F00C0020B104285F
:1026A00005D008283AD105E0DFF8849039E0DFF85A
:1026B000849036E01D48001F006800F03F041B486E
:1026C000001F006800F4800078B11A481749091FFC
:1026D0000968C1F38811A0FB01700146224600235E
:1026E0003846FDF78FFD05460EE011480F49091FDA
:1026F0000968C1F38811A0FB01700146224600233E
:102700003846FDF77FFD05460848001F0068C0F306
:102710000140401C4600B5FBF6F902E0DFF81090DE
:1027200000BF00BF4846BDE8F087000008380240FF
:102730000024F40040787D01F8B504460CB901206E
:10274000F8BD207800F00100002874D0F748006838
:1027500000F00C0004280DD0F448006800F00C00D4
:10276000082813D1F148001F006800F48000B0F57C
:10277000800F0BD1ED4808380068C0F340400028B6
:1027800059D06068002856D10120D9E700BF6068A1
:10279000B0F5803F08D1E5480838006840F4803043
:1027A000E249083908601EE06068B0F5A02F0DD13D
:1027B000DE480838006840F48020DC4908390860A9
:1027C0000846006840F4803008600CE0D7480838BC
:1027D000006820F48030D549083908600846006850
:1027E00020F48020086000BF606890B1FFF784FD8E
:1027F000054606E0FFF780FD401B642801D9032051
:102800009EE7CA4808380068C0F340400028F1D06D
:1028100011E0FFF771FD054606E0FFF76DFD401B77
:10282000642801D903208BE7C04808380068C0F34A
:1028300040400028F1D1207800F0020002285FD14A
:10284000BA48006800F00C0058B1B848006800F0C1
:102850000C0008281CD1B548001F006800F4800057
:10286000B0B9B24808380068C0F3400020B1E06851
:10287000012801D0012063E7AC480838006820F047
:10288000F800216940EAC100A8490839086037E02A
:10289000E06800B30120A6490860FFF72DFD05465A
:1028A00006E0FFF729FD401B022801D9032047E776
:1028B0009E4808380068C0F340000028F1D09B48CB
:1028C0000838006820F0F800216940EAC100974903
:1028D0000839086014E0002095490860FFF70CFDF6
:1028E000054606E0FFF708FD401B022801D903203A
:1028F00026E78E4808380068C0F340000028F1D170
:10290000207800F0080008282CD16069A8B10120C7
:1029100088490860FFF7F0FC054606E0FFF7ECFC8D
:10292000401B022801D903200AE780486C30006868
:10293000C0F340000028F1D014E000207D49086079
:10294000FFF7DAFC054606E0FFF7D6FC401B02283D
:1029500001D90320F4E675486C300068C0F34000EC
:102960000028F1D1207800F00400042870D100275D
:102970006E483830006800F0805090B900BF0020E9
:1029800000906A483830006840F08050674938311C
:1029900008600846006800F08050009000BF00BF4B
:1029A00001276548006800F48070B0B9624800688B
:1029B00040F4807060490860FFF79EFC054606E021
:1029C000FFF79AFC401B022801D90320B8E65A48B9
:1029D000006800F480700028F2D000BFA0680128D1
:1029E00008D152486830006840F001004F49683112
:1029F00008601DE0A06805280DD14C4868300068CB
:102A000040F004004949683108600846006840F019
:102A1000010008600CE045486830006820F00100C3
:102A20004249683108600846006820F004000860E8
:102A300000BFA068A8B1FFF75FFC054609E0FFF7FB
:102A40005BFC401B41F28831884202D9032077E6C3
:102A500026E0364868300068C0F340000028EED019
:102A600013E0FFF749FC054608E0FFF745FC401B73
:102A700041F28831884201D9032061E62B48683051
:102A80000068C0F340000028EFD1012F07D127488C
:102A90003830006820F0805024493831086000BF89
:102AA000A069002850D02148006800F00C000828D8
:102AB00060D0A069022848D100201D490866FFF7B0
:102AC0001BFC054606E0FFF717FC401B022801D956
:102AD000032035E6154808380068C0F34060002838
:102AE000F1D1D4E907010843616A40EA811101226A
:102AF000A06AC2EB500041EA00412C20005D41EA8F
:102B000000613020005D41EA00700849091F08603B
:102B1000012007490866FFF7EFFB05460EE0FFF7C7
:102B2000EBFB401B022809D9032009E608380240C4
:102B300000004742800E474200700040284800686D
:102B4000C0F340600028EAD048E00020254908662C
:102B5000FFF7D2FB054606E0FFF7CEFB401B02283D
:102B600001D90320ECE51E480068C0F3406000284E
:102B7000F2D133E0A069012800D1E1E51848001D39
:102B80000668A069012827D006F48001E069814227
:102B900022D106F03F01206A81421DD147F6C07064
:102BA0003040616AB0EB811F16D106F4403101223A
:102BB000A06AC2EB5000B1EB004F0DD106F070617E
:102BC0002C20005DB1EB006F06D106F0E041302013
:102BD000005DB1EB007F01D00120B1E50020AFE541
:102BE000003802400000474270B504462546681E82
:102BF000B0F1807F01D301200FE0681E4FF0E0218B
:102C000048610F214FF0FF3002F044FC00204FF0EC
:102C1000E021886107200861002070BD704770477F
:102C200010B50346002200BF93F83C00012801D1F3
:102C3000022010BD012083F83C0000BF22F0FF00FD
:102C4000CC6840EA040222F440708C6840EA040236
:102C500022F480604C6840EA040222F400600C68B0
:102C600040EA040222F480500C6940EA040222F493
:102C700000504C6940EA040222F48040CC6940EAEA
:102C800004021868426400BF002083F83C0000BFC3
:102C900000BFCEE730B502460B4600BF92F83C00BD
:102CA000012801D1022030BD012082F83C0000BF84
:102CB000022082F83D00106844681068816824F0A2
:102CC000700418680443106844600E4D1068A842F0
:102CD00007D00D4D1068A84203D00C4D1068A842D3
:102CE00005D121F0800158680143106881600120FE
:102CF00082F83D0000BF002082F83C0000BF00BF0A
:102D0000D1E7000000000140000C004000400140FD
:102D100070B504460D4615B994F842000BE0042D39
:102D200002D14320005D06E0082D02D14420005D61
:102D300001E04520005D012801D0012070BD1DB9D2
:102D4000022084F842000EE0042D03D1022143202A
:102D5000015508E0082D03D102214420015502E06D
:102D600002214520015504222946206801F0DBFF9D
:102D70002068406C40F40040216848641049206895
:102D8000884207D00F492068884203D00E49206846
:102D900088420CD12068806800F00706062E0CD00F
:102DA0002068006840F001002168086005E02068A4
:102DB000006840F00100216808600020BEE70000C4
:102DC00000000140000C00400040014070B5044686
:102DD0000D4600222946206801F0A5FF00BF2068AB
:102DE000006A41F21111084050B92068006A891048
:102DF000084028B92068406C20F4004021684864ED
:102E000000BF00BF2068006A41F21111084050B9AC
:102E10002068006A8910084028B92068006820F0FE
:102E200001002168086000BF1DB9012084F842003C
:102E30000EE0042D03D101214320015508E0082DA7
:102E400003D101214420015502E001214520015513
:102E5000002070BD10B504460CB9012010BD94F8D7
:102E60003D0028B9002084F83C00204600F026F8F8
:102E7000022084F83D00211D206801F009FF012097
:102E800084F8460000BF84F83E0001213F20015530
:102E9000402001554120015500BF00BF012084F8AA
:102EA000420043200155442001554520015500BFF3
:102EB000012084F83D000020D0E7000038B504462A
:102EC00019492068884218D100BF00200090174897
:102ED000006840F00100154908600846006800F0ED
:102EE0000100009000BF00BF002211461820FFF72C
:102EF00091FA1820FFF77AFA15E00D492068884208
:102F000011D100BF002000900848001F006840F069
:102F100008000649091F08600846006800F008001C
:102F2000009000BF00BF38BD00000140443802409F
:102F3000000C0040014691F83D00012801D001201D
:102F40007047022081F83D00104B0868984207D076
:102F50000F4B0868984203D00E4B086898420CD17A
:102F60000868806800F00702062A0CD0086800682C
:102F700040F001000B68186005E00868006840F048
:102F800001000B6818600020DAE700000000014033
:102F9000000C0040004001402DE9F04104460D4680
:102FA000002700BF94F83C00012802D10220BDE8B0
:102FB000F081012084F83C0000BF022084F83D002D
:102FC0002068866826F0770626F47F4620688660AB
:102FD0002868502833D00CDC202850D004DC00288E
:102FE0004BD0102851D149E0302849D040284CD14D
:102FF00039E060282DD0702807D0B0F5805F03D06D
:10300000B0F5005F41D10DE041E0D5E902136A68F7
:10301000206801F099FE2068866846F077062068EF
:10302000866034E0D5E902136A68206801F08CFEFE
:103030002068806840F480402168886027E0EA6862
:103040006968206801F050FF5021206801F087FE78
:103050001DE0EA686968206801F059FF6021206876
:1030600001F07DFE13E0EA686968206801F03CFF2A
:103070004021206801F073FE09E000BF00BF00BFDF
:103080002968206801F06BFE01E0012700BF00BF46
:10309000012084F83D0000BF002084F83C0000BF00
:1030A000384684E7704770B504462068C5682068D4
:1030B000066906F00200022819D105F00200022874
:1030C00015D1401F216808610120207720688069A0
:1030D00000F0030018B12046FFF7E4FF05E02046AA
:1030E00000F0E8F8204600F09CF90020207706F078
:1030F0000400042819D105F00400042815D1C043A8
:1031000021680861022020772068806900F44070FF
:1031100018B12046FFF7C6FF05E0204600F0CAF8C8
:10312000204600F07EF90020207706F008000828ED
:1031300019D105F00800082815D1C043216808619D
:10314000042020772068C06900F0030018B12046F1
:10315000FFF7A8FF05E0204600F0ACF8204600F09D
:1031600060F90020207706F01000102819D105F032
:103170001000102815D1C04321680861082020776D
:103180002068C06900F4407018B12046FFF78AFF3C
:1031900005E0204600F08EF8204600F042F90020BD
:1031A000207706F0010048B105F0010030B16FF062
:1031B000010021680861204600F0E8F906F080006F
:1031C000802809D105F08000802805D1C0432168FE
:1031D00008612046FFF722FD06F04000402809D193
:1031E00005F04000402805D1C04321680861204611
:1031F00000F0CDF906F02000202809D105F02000CC
:10320000202805D1C043216808612046FFF707FD4B
:1032100070BD000010B586B00446142101A8FDF76A
:1032200029F820492068884239D100BF0020009049
:103230001D48006840F001001B490860084600680E
:1032400000F00100009000BF00BF00BF0020009010
:103250000846006840F0020008600846006800F078
:103260000200009000BF00BF4FF478600190022080
:1032700002900020039004900120059001A90B48C2
:10328000FEF756FF032001900220029000200390D9
:1032900004900120059001A90548FEF749FF06B0FA
:1032A00010BD000000000140303802400000024024
:1032B0000004024070472DE9F04104460D461646D1
:1032C000002700BF94F83C00012802D10220BDE88D
:1032D000F081012084F83C0000BF36B1042E1BD0E1
:1032E000082E31D00C2E5ED145E02946206801F031
:1032F0003FFD2068806940F00800216888612068EF
:10330000806920F00400216888612068806929694B
:1033100008432168886148E02946206801F058FD8B
:103320002068806940F400602168886120688069B5
:1033300020F480602168886120688069296940EAFA
:1033400001202168886130E02946206801F074FD81
:103350002068C06940F008002168C8612068C06921
:1033600020F004002168C8612068C0692969084309
:103370002168C86119E02946206801F091FD2068A4
:10338000C06940F400602168C8612068C06920F409
:1033900080602168C8612068C069296940EA01200D
:1033A0002168C86101E0012700BF00BF00BF002005
:1033B00084F83C0000BF384689E710B504460CB9D4
:1033C000012010BD94F83D0028B9002084F83C008D
:1033D000204600F025F8022084F83D00211D2068D9
:1033E00001F056FC012084F8460000BF84F83E003E
:1033F00001213F200155402001554120015500BFCA
:1034000000BF012084F842004320015544200155AB
:103410004520015500BF012084F83D000020D0E781
:103420007047704770B504460D4615B994F83E00D4
:103430000BE0042D02D13F20005D06E0082D02D1F3
:103440004020005D01E04120005D012801D0012005
:1034500070BD1DB9022084F83E000EE0042D03D19A
:1034600002213F20015508E0082D03D10221402010
:10347000015502E002214120015501222946206820
:1034800001F040FC17492068884201D1012000E08A
:10349000002028B12068406C40F400402168486456
:1034A00010492068884207D00F492068884203D01D
:1034B0000E49206888420CD12068806800F0070619
:1034C000062E0CD02068006840F0010021680860DA
:1034D00005E02068006840F00100216808600020D5
:1034E000B6E7000000000140000C00400040014031
:1034F00030B504460D4600222946206801F002FC42
:1035000021492068884201D1012000E0002090B1CB
:1035100000BF2068006A41F21111084050B92068CC
:10352000006A8910084028B92068406C20F40040E7
:103530002168486400BF00BF2068006A41F2111191
:10354000084050B92068006A8910084028B92068EE
:10355000006820F001002168086000BF1DB901204B
:1035600084F83E000EE0042D03D101213F200155D7
:1035700008E0082D03D101214020015502E001217E
:1035800041200155002030BD0000014070477047C8
:10359000F8B504460E46174694F8420020282ED16E
:1035A00006B10FB90120F8BD01202063002060633F
:1035B0003A463146204601F0A1FE0546EDB9206BA2
:1035C000012819D100BF00200090206800680090F9
:1035D00020684068009000BF00BF00BF00BF2168A6
:1035E0000C3151E8001F41F0100021680C3141E816
:1035F0000002002AF3D100E001252846D3E702208B
:10360000D1E7000070B504460D460749206888429E
:1036100009D12946054800F073FF4FF47A72034937
:103620000348FFF7B5FF70BD00100140880200207D
:1036300080010020704700002DE9F84F0446206803
:1036400005682068C668206847694FF00009CA46C7
:1036500005F00F09B9F1000F0AD105F0200038B1CB
:1036600006F0200020B1204601F0B4FCBDE8F88F40
:10367000B9F1000F7CD007F0010018B906F4907082
:10368000002875D005F0010030B106F4807018B143
:10369000606C40F00100606405F0040030B107F098
:1036A000010018B1606C40F00200606405F0020097
:1036B00030B107F0010018B1606C40F004006064A4
:1036C00005F0080048B106F0200010B907F001002D
:1036D00018B1606C40F008006064606C002846D04F
:1036E00005F0200028B106F0200010B1204601F0BE
:1036F00071FC20684069C0F3801A606C00F008001B
:1037000010B9BAF1000F2DD0204601F01DFC206841
:10371000406900F04000402820D100BF00BF216870
:10372000143151E8001F21F040002168143141E8B4
:103730000002002AF3D100BFE06B50B17F48E16B7B
:103740000865E06BFEF736FB88B1E06B016D8847DA
:103750000DE02046FFF76EFF09E009E02046FFF785
:1037600069FF04E02046FFF765FF002060647DE705
:10377000206B012878D105F01000002874D006F0E5
:1037800010000028FAD000BF0020009020680068D8
:10379000009020684068009000BF00BF206840692A
:1037A00000F04000402870D1E06B006840681FFACC
:1037B00080F8B8F1000F58D0A08D404555DDA4F831
:1037C0002E80E06BC069B0F5807F43D000BF00BFA2
:1037D00021680C3151E8001F21F4807021680C3100
:1037E00041E80002002AF3D100BF00BF00BF2168FA
:1037F000143151E8001F21F001002168143141E823
:103800000002002AF3D100BF00BF00BF21681431BD
:1038100051E8001F21F040002168143141E8000206
:10382000002AF3D100BF202084F84200002020634A
:1038300000BF00BF21680C3151E8001F21F01000CB
:1038400021680C3141E80002002AF3D100BFE06B8F
:10385000FEF75AFA02206063A08DE28D801A81B2D1
:103860002046FFF7CFFE0EE052E0A08D40450AD182
:10387000E06BC069B0F5807F05D102206063A18D47
:103880002046FFF7BFFEF1E6FFE7A08DE18D401A6D
:103890001FFA80F8E08DD0B3B8F1000F37D000BF29
:1038A00000BF21680C3151E8001F21F4907021689D
:1038B0000C3141E80002002AF3D100BF00BF00BF75
:1038C0002168143151E8001F21F0010021681431F2
:1038D00041E80002002AF3D100BF202084F8420012
:1038E0000020206300BF00BF21680C3151E8001F99
:1038F00021F0100021680C3141E80002002AF3D1C8
:1039000000BF0220606341462046FFF77BFEADE624
:1039100005F0800030B106F0800018B1204601F0BB
:103920000DFDA3E605F0400030B106F0400018B1EF
:10393000204601F03FFB99E600BF97E6374F0008AD
:1039400010B504460CB9012010BDA06900B100E01B
:1039500000BF94F8410028B9002084F840002046B8
:1039600000F02AF8242084F841002068C06820F480
:1039700000502168C860204601F0AAFB2068006959
:1039800020F49040216808612068406920F02A00F6
:10399000216848612068C06840F400502168C86010
:1039A00000206064202084F8410084F84200002058
:1039B000606300BFC8E7000010B586B0044614215C
:1039C00001A8FCF757FC3D492068884273D100BF2D
:1039D000002000903A48006840F010003849086024
:1039E0000846006800F01000009000BF00BF00BF54
:1039F0000020009032481438006840F0020030493E
:103A0000143908600846006800F00200009000BF0A
:103A100000BFC020019002200290002003900320EC
:103A200004900720059001A92648FEF781FB26484F
:103A3000264908604FF000604860002123488160FB
:103A4000C1604FF480610161002141618161C16108
:103A500001624162FEF7E2FA08B1FDF73DF800BFEE
:103A60001A48E063846300BF17487830184908603B
:103A70004FF0006048604021154881600021C1601E
:103A80004FF480610161002141618161C161016286
:103A90004162FEF7C3FA08B1FDF71EF800BF0C48FB
:103AA000A063846300BF002211462520FEF7B2FC0C
:103AB0002520FEF79BFC06B010BD00000010014061
:103AC000443802400004024040640240C801002023
:103AD0002802002070472DE9F84F04460E4617468D
:103AE00099464FF0000A94F84100202850D106B1C1
:103AF00017B90120BDE8F88F00206064212084F808
:103B00004100FEF7F9FB8246A784E784A068B0F580
:103B1000805F04D1206910B90025B04602E0354627
:103B20004FF000081EE05346002280212046CDF8C9
:103B3000009001F033FC20B1202084F841000320E4
:103B4000D8E745B9B8F80000C0F30800216848601C
:103B500008F1020803E02878216848606D1CE08CB9
:103B6000401EE084E08C0028DDD153460022402135
:103B70002046CDF8009001F011FC20B1202084F8FF
:103B800041000320B6E7202084F841000020B1E77F
:103B90000220AFE7704700BFFEE7000010B52DED33
:103BA000028B7D4800F0E0F904467C484078042808
:103BB00002D07A488078B0B10020794908707949FC
:103BC00008709FED790A794880ED000A002C25D015
:103BD0000320724948700020887000F07DFF74A0B7
:103BE00000F026F91AE0CCB16D48007808B9012040
:103BF00000E000206A4908700846007828B16F4844
:103C0000007810B901206D4908706548007810B936
:103C10000020644908706AA000F00AF96B4800F0BF
:103C2000A3F900B35E48007878B16448007860B1C9
:103C300067480078404240B26649087001205949FF
:103C4000087065A000F0F4F80DE06148007840428B
:103C500040B25F490870084690F900005D4908705D
:103C600061A000F0E5F8634800F07EF958B15348D0
:103C70000078032804D251480078401C4F4908704E
:103C80005DA000F0D5F85F4800F06EF950B14B48E8
:103C9000007820B149480078401E484908705AA071
:103CA00000F0C6F83E48007810B14448007860BB88
:103CB00000203C490870DFED3C0A3C4890ED000ACA
:103CC00000F088F9394880ED000A90ED000A00F014
:103CD000A5F970B19FED340A344880ED000A9FEDDC
:103CE000320A4C4880ED020A9FED2F0A80ED010A4E
:103CF00049E0B7EE000A474880ED020A2B4890EDF4
:103D0000000A444880ED010A3DE02648007808B3E7
:103D10009FED258AF0EE480A244890ED000A00F055
:103D200059F9224880ED000A90ED000A00F076F97A
:103D3000F0B19FED1D0A1D4880ED000A254890F95D
:103D400000002349087000201649087032A000F0D6
:103D50006FF80DE000F074F9B0EE408AF0EE480A1A
:103D6000124890ED000A00F035F9104880ED000A85
:103D7000B7EE000A274880ED020A0C4890ED000AD1
:103D8000244880ED010A002027490860274908607F
:103D9000BDEC028B10BD0000300000209806002012
:103DA0002400002028000020000000002C0000203B
:103DB0004641554C545F524553455400270000205E
:103DC00052554E5F544F47474C4500003C00002081
:103DD00025000020260000204449525F52414D50EA
:103DE0005F535441525400004449525F544F474777
:103DF0004C4500004800002053504545445F555055
:103E0000000000005400002053504545445F444FDB
:103E1000574E0000700600204449525F52455645F7
:103E20005253454400000000600000206400002060
:103E300030B587B0044600F003F9BDEEC00A10EEBD
:103E4000105A134890ED090ABDEEC00A8078104957
:103E50004978CDE9035105908DED060A0D4890EDA6
:103E6000000ABDEEC00A0C4890F900000B4991F918
:103E70000010CDE900108DED020A094803780948C9
:103E800002782146084801F0D9FA07B030BD000099
:103E9000980600202C00002026000020250000208D
:103EA000270000202400002040610008104800780E
:103EB000012804D0022809D0032815D10DE00D48AF
:103EC000008800EE100AB8EE400A70470A480088E1
:103ED00000EE100AB8EE400AF7E70848008800EE46
:103EE000100AB8EE400AF0E79FED050AEDE7000082
:103EF0002700002004000020060000200800002009
:103F000000000000014631B1012906D0022906D087
:103F1000032908D105E005A0704706A0FCE707A02B
:103F2000FAE70AA0F8E70DA0F6E700004B45595F55
:103F300052554E004B45595F444952004B45595F1D
:103F400053504545445F5550000000004B45595FB4
:103F500053504545445F444F574E00004B45595F11
:103F6000554E4B4E4F574E0070B50446A188206801
:103F7000FEF7B4F908B9012000E000200546E07919
:103F8000A8421AD06089401C80B26081C82816D32C
:103F9000E0792072E57100206081E07958B1207AE3
:103FA00048B9A079FFF7AEFF0646314605A001F0FB
:103FB00045FA012070BD0020FCE700206081002050
:103FC000F8E70000257320707265737365640D0A4D
:103FD00000000000B0EE401A9FED0F0A30EEC00A5C
:103FE000B4EEC10AF1EE10FA04DD9FED0B0A31EEDA
:103FF000000A70479FED080A30EE800AB4EEC10A4D
:10400000F1EE10FA04D29FED040A31EE400AF0E717
:10401000B0EE600AEDE70000CDCC4C3EFFEE000AAA
:10402000B4EEE00AF1EE10FA08DDF7EE000AB4EEA5
:10403000E00AF1EE10FA01D2012070470020FCE7FF
:1040400010B5FFF733FF054890F9000000EE900A25
:10405000F8EEE00A20EE200A10BD00002500002046
:1040600000B58DB0002009900A900B900C90202193
:1040700001A8FCF7FFF83448344908604FF4803059
:1040800048600021314881600121016100210176F1
:1040900080F82010C1622E4981620021C160012197
:1040A000C161002180F8301001214161FDF784FDDC
:1040B00008B1FCF711FD0320099001200A900B9034
:1040C00009A92248FDF7FEFB08B1FCF705FD032016
:1040D00001900120029004200590002003904FF4ED
:1040E00080100890002007908DF819008DF81800B6
:1040F000049001A91548FDF7EBF908B1FCF7ECFCB9
:10410000042001900220029001A91048FDF7E0F977
:1041100008B1FCF7E1FC052001900320029001A901
:104120000A48FDF7D5F908B1FCF7D6FC0620019046
:104130000420029001A90548FDF7CAF908B1FCF76F
:10414000CBFC0DB000BD000000200140A800002005
:104150000100000F10B50548054908600846FDF745
:10416000A9FD08B1FCF7B8FC10BD0000003002400A
:104170000C00002008B500BF002000900E48006829
:1041800040F480000C4908600846006800F4800094
:10419000009000BF00BF002211463A20FEF73AF916
:1041A0003A20FEF723F9002211464620FEF732F9A5
:1041B0004620FEF71BF908BD3038024000B587B035
:1041C000142102A8FCF756F800BF002001903948DE
:1041D000006840F00400374908600846006800F0B5
:1041E0000400019000BF00BF00BF002001900846FE
:1041F000006840F0800008600846006800F0800019
:10420000019000BF00BF00BF002001900846006879
:1042100040F0010008600846006800F001000190CD
:1042200000BF00BF00BF002001900846006840F0BA
:10423000020008600846006800F00200019000BF1C
:1042400000BF00224FF460411B48FEF74FF80022E8
:1042500001211A48FEF74AF84FF46040029001200D
:10426000039000200490059002A91348FDF760FF19
:1042700001200290039000200490059002A90F48AD
:10428000FDF756FF062002900020039001200490C5
:1042900002A90B48FDF74CFF4FF4C04002900020EC
:1042A00003900120049002A90648FDF741FF07B0E2
:1042B00000BD00003038024000080240001C0240EF
:1042C000000002400004024000B595B000201190AB
:1042D0001290139014900F9010901C2108A8FBF7D7
:1042E000C9FF20216846FBF7C5FF3F483F490860EA
:1042F0000020486020213D48816041F26701C16093
:10430000002101610121416100218161FEF7A2FDCF
:1043100008B1FCF7E1FB4FF48050119011A933482C
:10432000FEF73AFE08B1FCF7D7FB3048FFF745F837
:1043300008B1FCF7D1FB20200F90002010900FA9AE
:104340002A48FEF7A7FC08B1FCF7C6FB60200890DE
:104350000120099000200A900B900C900D900E9077
:10436000002208A92148FEF7A6FF08B1FCF7B4FB1C
:10437000042208A91D48FEF79EFF08B1FCF7ACFB1C
:1043800000200990082208A91848FEF794FF08B1F8
:10439000FCF7A2FB7020089041F2660009900C2205
:1043A00008A91248FEF787FF08B1FCF795FB4FF408
:1043B0000060009040100190002002905420039073
:1043C000002004904FF400500590002007906946AB
:1043D0000648FEF725FC08B1FCF77EFB0348FEF714
:1043E00019FF15B000BD000000000140F0000020E2
:1043F00000B587B0002003900490059006900190CE
:1044000002901448144908600020486000211248B6
:1044100081604FF6FF71C160002101618161FEF78B
:1044200019FD08B1FCF758FB4FF48050039003A925
:104430000948FEF7B1FD08B1FCF74EFB00200190E2
:10444000029001A90448FEF725FC08B1FCF744FBE3
:1044500007B000BD000C00403801002010B50B482B
:104460000B4908604FF4E130486000210848816042
:10447000C16001610C21416100218161C161FFF7CF
:104480005FFA08B1FCF728FB10BD000000100140E6
:10449000800100203EB504460C4890ED090ABDEEAF
:1044A000C00A807809494978CDE900108DED020AEB
:1044B000064890ED040ABDEEC00A10EE103A0278EC
:1044C000214603A000F0BAFF3EBD00009806002080
:1044D00025733A20636D643D25642072706D3D251F
:1044E000642073746174653D2564206572723D2596
:1044F0006420766275733D25640D0A0000BFFEE7F7
:104500002DE9F04389B0074688460025002601E0E2
:10451000681C85B245450BDA785D2028F8D0785DB7
:104520000928F5D0785D0D28F2D0785D0A28EFD003
:1045300015E029466A1C95B2785C0D2801D00A283E
:1045400000D110E0612804DB7A2802DCA0F1200110
:10455000C8B23146721C96B201AA505400BF4545FC
:1045600001DA1F2EE5D300BF01E0701E86B2002ED7
:1045700008DD701E01A9085C2028F6D0701E085CBA
:104580000928F2D0002001A9885516B909B0BDE864
:10459000F0833DA101A8FCF75DF920B93BA101A87A
:1045A000FCF758F910B1FCF76DF96BE039A101A8DF
:1045B000FCF750F910B1FCF7FBF963E037A101A853
:1045C000FCF748F910B1FCF705F95BE034A101A84C
:1045D000FCF740F910B1FCF7C3F953E031A101A891
:1045E000FCF738F910B1FCF7A3F94BE02FA101A8B3
:1045F000FCF7CEF920B92FA101A8FCF7C9F958B3EF
:104600002AA101A8FCF7C4F908B102A801E00DF144
:104610000A00044600E0641C20782028FBD02078A3
:104620000928F8D02078302812DB207833280FDCD6
:10463000607828B16078202802D06078092807D1F6
:104640002078303800F0FF094846FCF751F902E0C5
:104650001AA000F0F3FE15E01CA101A8FCF7FAF87F
:1046600018B11CA0FFF7E4FB0CE01DA101A8FCF7AA
:10467000F1F818B11CA000F0E1FE03E001A925A0AB
:1046800000F0DCFE00BF81E752554E00535441520A
:104690005400000053544F500000000044495200A1
:1046A00055500000444F574E000000004C564C201F
:1046B000000000004C4556454C2000004552522059
:1046C0004C564C20302E2E330D0A000053544154CA
:1046D00055530000554152545F53544154555300B3
:1046E00048454C5000000000434D443A2052554E7E
:1046F0002053544F502044495220555020444F5786
:104700004E204C564C20302E2E33205354415455BD
:10471000530D0A0045525220554E4B4E4F574E20D6
:10472000434D443A2025730D0A00000010B545485A
:10473000407805287ED2DFE800F0031623047E00CF
:1047400000BF4048007801280AD13FA0FFF7A2FE31
:10475000FCF73EFC00F080F901203A49487001E086
:1047600000F008FA6BE04FF4FA7001F09FFA0220B3
:104770003449487000F094F936A0FFF78BFE5EE0F4
:10478000304890ED060A354880ED000A2D4890ED3E
:10479000070A324880ED010A2A4890ED080A2F489E
:1047A00080ED020A274890ED090A2C4880ED030AA3
:1047B000244890ED040A2A4880ED050A9FED290A55
:1047C000264880ED040AFCF72BFC274890ED000AF0
:1047D000BCEEC00A10EE100A24490968486322485A
:1047E00090ED010ABCEEC00A10EE100A1F490968DC
:1047F00088631D4890ED020ABCEEC00A10EE100A54
:104800001A490968C86300F057F80E48007850B993
:1048100003200C49487000F0ADF94FF4FA7001F034
:1048200045FAFCF7D5FB0748807810B1042005490C
:10483000487004E002E000F09DF900E000BF00BF16
:1048400010BD000098060020434D445F5354415270
:10485000540000004D435F52554E000014070020E5
:10486000D4060020000000002C070020F0000020EB
:104870009FED0E0A0E4880ED000A90ED020AB5EE9B
:10488000C00AF1EE10FA01D0012000E00020094931
:104890000870074890ED000A084680ED020A0448B7
:1048A00090ED010A084680ED040A70470000000000
:1048B000700600209806002010B53C4890ED060ACE
:1048C000F3EE040AB4EEE00AF1EE10FA08DC90ED23
:1048D000060AFBEE040AB4EEE00AF1EE10FA06D284
:1048E000324890F83700401C304981F837002F4893
:1048F00090ED070AF3EE040AB4EEE00AF1EE10FAC6
:1049000008DC90ED070AFBEE040AB4EEE00AF1EED3
:1049100010FA06D2254890F83700401C234981F848
:104920003700224890ED080AF3EE040AB4EEE00ADC
:10493000F1EE10FA08DC90ED080AFBEE040AB4EE82
:10494000E00AF1EE10FA06D2184890F83700401C41
:10495000164981F83700154890F8370004280ADD19
:104960003C20124981F837000420487003208870E9
:10497000012100F0CBF80E4890ED000ADFED0D0AA2
:10498000B4EEE00AF1EE10FA0FDB90ED000ADFED75
:104990000A0AB4EEE00AF1EE10FA06D80420034940
:1049A00048708870012100F0B1F810BD9806002011
:1049B000800000200000A0420000484310B52448B9
:1049C00090ED090AF1EE000AB4EEE00AF1EE10FAF9
:1049D00009D201201E498870042048700121084630
:1049E00000F094F832E01A4890ED090AF3EE040A58
:1049F000B4EEE00AF1EE10FA16DD90F8361090F8F9
:104A00003600401C124A82F8360005291EDD0220BD
:104A100011468870084690ED090A80ED0E0A0121C2
:104A2000022000F073F811E0094890ED090AF3EE56
:104A30000E0AB4EEE00AF1EE10FA03DD0420044998
:104A4000487003E00020024981F8360010BD0000E4
:104A50009806002000BFFEE710B59FED090A09483F
:104A600080ED020A9FED060A80ED040A0020054948
:104A70004870887000F030F803A000F0DFFC10BD33
:104A800000000000980600204D6F746F7220496E80
:104A90006974204F4B210D0A0000000070477047D9
:104AA00010B500210B48FEF7BDFC04210948FEF7B4
:104AB000B9FC08210748FEF7B5FC00210548FEF7C0
:104AC00027F904210348FEF723F908210148FEF7DE
:104AD0001FF910BDF000002010B501221146094851
:104AE000FDF704FC0122D1030748FDF7FFFB01227B
:104AF00091030548FDF7FAFB012251030248FDF737
:104B0000F5FB10BD001C02400008024070B50446D1
:104B10000D460DB9012000E000200646012C06D00C
:104B2000022C0AD0032C0FD0042C1BD113E03246E8
:104B300001210E48FDF7DAFB15E032464FF4004143
:104B40000B48FDF7D3FB0EE032464FF48041084896
:104B5000FDF7CCFB07E032464FF400510448FDF767
:104B6000C5FB00E000BF00BF70BD0000001C02409C
:104B70000008024010B500210B48FEF7B9FC0421E3
:104B80000948FEF7B5FC08210748FEF7B1FC0021F3
:104B90000548FEF71BF904210348FEF717F9082121
:104BA0000148FEF713F910BDF000002010B5FDF725
:104BB000A9FB10BD00B593B0342106A8FBF75AFB42
:104BC000142101A8FBF756FB00BF002000902548E8
:104BD000006840F08050234908600846006800F0F3
:104BE0008050009000BF00BF00BF002000901E4812
:104BF000006840F440401C4908600846006800F422
:104C00004040009000BF00BF0220069001200990A4
:104C100010200A9002200C9000210D9108210E9185
:104C200054210F910221109104211191022112911E
:104C300006A8FDF781FD08B1FBF74EFF0F2001909C
:104C400002200290002003904FF480500490002036
:104C50000590022101A8FDF72FFC08B1FBF73CFFEE
:104C600013B000BD403802400070004003480068A7
:104C700040F47000014908607047000088ED00E0D2
:104C800010B50248FEF70FFA10BD0000F00000203A
:104C900010B50268174B984202D0174B984203D1C7
:104CA00022F070024B681A43124B984208D0124B04
:104CB000984205D0114B984202D0114B984203D133
:104CC00022F44072CB681A4322F080034C6943EA15
:104CD00004028B68C3620B688362064B984201D161
:104CE0000B690363036843F004030360012343611A
:104CF000026010BD00000140000C00400040014077
:104D00000048014030B501F01F05012404FA05F305
:104D1000046A9C430462046A01F01F0502FA05F567
:104D20002C43046230BD30B501F00F05042404FAB1
:104D300005F3046A9C430462046A01F00F0502FA59
:104D400005F52C43046230BD30B50C46816821F472
:104D50007F4142EA032525432943816030BD0A464D
:104D6000816821F0700142F00703194381607047A8
:104D700030B5026A056A25F0010505624368846959
:104D800024F0700424F003040D682C4322F0020286
:104D90008D682A430D4DA84206D100BF22F00802BB
:104DA000CD682A4322F00402084DA84207D123F41B
:104DB000807323F400734D692B438D692B4343604B
:104DC00084614D684563026230BD0000000001400F
:104DD00030B5026A056A25F01005056243688469EA
:104DE00024F4E04424F440740D6844EA052422F0DD
:104DF00020028D6842EA05120E4DA84207D100BF7D
:104E000022F08002CD6842EA051222F04002094DEC
:104E1000A84209D123F4806323F400634D6943EA77
:104E200085038D6943EA8503436084614D6885632A
:104E3000026230BD0000014030B5026A056A25F407
:104E4000807505624368C46924F0700424F003048B
:104E50000D682C4322F400728D6842EA05220F4D42
:104E6000A84207D100BF22F40062CD6842EA0522C1
:104E700022F48062094DA84209D123F4805323F41F
:104E800000534D6943EA05138D6943EA05134360F6
:104E9000C4614D68C563026230BD0000000001407E
:104EA00030B5036A056A25F4805505624468C26915
:104EB00022F4E04222F440720D6842EA052223F413
:104EC00000538D6843EA0533064DA84204D124F40B
:104ED00080444D6944EA85144460C2614D680564AC
:104EE000036230BD0000014030B50B461446026A33
:104EF000056A25F001050562816921F0F00141EAAA
:104F0000041122F00A021A438161026230BD30B5F9
:104F10000B461446026A056A25F010050562816990
:104F200021F4704141EA043122F0A00242EA031266
:104F30008161026230BD70B50446A56B0020E88532
:104F40002846FEF777FB70BD00BF00BF02680C3239
:104F500052E8002F22F4907102680C3242E80013EC
:104F6000002BF3D100BF00BF00BF0268143252E82B
:104F7000002F22F001010268143242E80013002BD6
:104F8000F3D100BF016B01290ED100BF00BF026841
:104F90000C3252E8002F22F0100102680C3242E875
:104FA0000013002BF3D100BF202180F84210002114
:104FB0000163704710B504462068C06820F04000C7
:104FC0002168C860202084F841002046FEF7E2FDF9
:104FD000002010BDF8B504460025002694F84200D4
:104FE000222873D1A068B0F5805F0BD1206948B941
:104FF000A66A20684068C0F308003080A06A801C60
:10500000A06214E0A56AA068B0F5805F03D0A06834
:1050100028B9206918B920684068287004E0206821
:10502000406800F07F002870A06A401CA062E08DFC
:10503000401E80B2E085002846D12068C06820F07C
:1050400020002168C8602068C06820F48070216852
:10505000C8602068406920F0010021684861202074
:1050600084F8420000206063206B012826D10020D4
:10507000206300BF00BF21680C3151E8001F21F000
:10508000100021680C3141E80002002AF3D100BF72
:105090002068006800F0100010280AD100BF00202E
:1050A000009020680068009020684068009000BF71
:1050B00000BFA18D2046FEF7A5FA02E02046FEF7CC
:1050C00009FD0020F8BD01E00020FBE70220F9E720
:1050D0002DE9F84F04462068006920F44050E1684B
:1050E0000843216808612169A06808436169084391
:1050F000E169084300902068C06849F20C61884368
:10510000009908432168C8602068406920F4407015
:10511000A16908432168486176492068884203D024
:1051200075492068884203D1FDF79EFA814602E066
:10513000FDF78AFA8146E069B0F5004F6CD1022094
:105140006168A0FB015003461920A9FB00700146CD
:105150002A463846FBF756F86421B0FBF1F04FEAD7
:10516000001A02206168A0FB01510B461920A9FB1F
:1051700000712A463846FBF745F8834602206168ED
:10518000A0FB015003461920A9FB00712A463846AE
:10519000FBF738F86421B0FBF1F000EBC00101EB44
:1051A0000010ABEB8000322101EBC0006421B0FBAA
:1051B000F1F000F0F8000AEB400A02206168A0FB61
:1051C000015003461920A9FB007001462A463846C3
:1051D000FBF718F8834602206168A0FB01500346E4
:1051E0001920A9FB00712A463846FBF70BF8642109
:1051F000B0FBF1F000EBC00101EB0010ABEB800065
:10520000322101EBC0006421B0FBF1F000F0070097
:105210005044216888606AE004206168A0FB015066
:1052200003461920A9FB007001462A463846FAF7C2
:10523000E9FF824604206168A0FB01500346192063
:10524000A9FB007001462A463846FAF7DBFF6421C5
:10525000B0FBF1F000EBC00101EB0010AAEB800005
:10526000322101EB00106421B0FBF1F000F0F00AF4
:1052700004206168A0FB017003461920A9FB0051BE
:105280003A462846FAF7BEFF6421B0FBF1F00AEB7C
:10529000001A04206168A0FB01510B461920A9FBEC
:1052A00000712A463846FAF7ADFF8346042061684C
:1052B000A0FB015003461920A9FB007001462A46B5
:1052C0003846FAF79FFF6421B0FBF1F000EBC00114
:1052D00001EB0010ABEB8000322101EB00106421E8
:1052E000B0FBF1F000F00F00504421688860BDE889
:1052F000F88F0000001001400014014010B5034673
:1053000099629A85DA8500205864222083F8420049
:10531000186928B11868C06840F480701C68E060A3
:105320001868406940F001001C6860611868C06836
:1053300040F020001C68E060002010BD014691F89C
:105340004100212828D18868B0F5805F0BD1086919
:1053500048B90A6A1088C0F308000B685860086AE8
:10536000801C086205E00B6A581C086218780B68FC
:105370005860C88C401E80B2C88458B90868C0689C
:1053800020F080000B68D8600868C06840F04000DA
:105390000B68D860002070470220FCE72DE9F84335
:1053A00004460D4617469846089E31E0701C70B3BF
:1053B000FCF7A2FFA0EB0800B04200D816B903200A
:1053C000BDE8F8832068C06800F00400F8B1802DC3
:1053D0001ED0402D1CD020680068C0F3C000B0B1C2
:1053E00000BF00200090206800680090206840689E
:1053F000009000BF00BF2046FFF7A6FD08206064B4
:1054000000BF002084F8400000BF0120D8E7FFE77C
:10541000206800682840A84201D1012000E0002057
:10542000B842C3D00020CBE710B50248FEF704F91C
:1054300010BD00008001002000BFFEE70FB4054B47
:1054400010B503A9044A029800F054FB10BC5DF8A3
:1054500014FB0000BD5C0008A00000204100080211
:1054600018BF04200A0E18BF40F001004FF07F4221
:1054700032EA010108BF40F00200012808BF052000
:105480007047000002480068C0F302207047000027
:105490000CED00E010B5002804DB0A07130E054AE6
:1054A000135406E00A07140E034A00F00F031B1FF3
:1054B000D45410BD00E400E018ED00E010EE101A26
:1054C00008B5444A6846B2EB410F28D94FF0E64090
:1054D000B0EB410F94BF00204FF0FF3000900098D8
:1054E000002861DB60EE000A10F0010F45D010F0DB
:1054F000020FDFED391A9FED391A00EEE11ADFEDE8
:10550000381A40EE811A21EEA01AF0EE400A40EE61
:10551000010A08BFF1EE600AB0EE600A08BD314B27
:1055200021F0004293423CD911F0004FDFED2E0AEA
:1055300020EE201ADFED2D0A19BF31EE601A71EE50
:10554000200A31EE201A71EE600ABDEEE01A11EE6B
:10555000100A9FED271A00F0030000EEC10A9FED2C
:10556000251A009000EEC10A9FED231A00EEC10A31
:105570009FED221A00EEC10AB1E79FED211A9FEDBF
:10558000210A10F0020F00EE810A9FED1F1A00EEB3
:10559000801AB7EE000A00EE810A18BFB1EE400A89
:1055A00008BD00F0E7F99AE710EE100A4000B0F1EC
:1055B0007F4F3CBFB7EE000A08BD07D14FF0010096
:1055C00000F092FABDE8084000F0C4B9BDE8084018
:1055D00000F0BCB9B61F927E336D4C39DA82083CBC
:1055E000A0AA2ABE490E494683F9223F0000004B7B
:1055F0000000C93F00A0FD390020A2331A61342CFD
:10560000B93AB2BACA9F2A3DDDFFFFBE10EE100ABA
:10561000C0F3C7517F391729A8BF7047DFED140ABF
:10562000002970EE200A0DDAF5EEC00AF1EE10FA4C
:105630001ADD0028A8BF002016DAB0F1004F18BF0D
:105640000C4811E00C4ACA40104208BF7047F5EE02
:10565000C00AF1EE10FA07DD002804DA4FF4000367
:1056600023FA01F10844904300EE100A704700004D
:10567000CAF24971000080BFFFFF7F0010B52DED19
:10568000028BB0EE608AF0EE408A18EE101A18EE27
:10569000900AFAF758FE00F07040B0F1005F0CD0AD
:1056A00018EE100A20F00040C0F1FF40C00F02BF0A
:1056B000B0EE480ABDEC028B10BDB0EE680ABDEC3E
:1056C000028B10BD10B52DED028BB0EE608AF0EEAE
:1056D000408A18EE101A18EE900AFAF734FE00F01D
:1056E0007040B0F1004F0CD018EE100A20F00040CE
:1056F000C0F1FF40C00F02BFB0EE480ABDEC028B04
:1057000010BDB0EE680ABDEC028B10BD10B52DEDDA
:10571000028BF0EE408A18EE900AB0EE608A20F01C
:105720000040C0F1FF40C00F07D118EE100A20F072
:105730000040C0F1FF40C00F2BD018EE101A18EE39
:10574000900AFAF7D7FD00EE100A10EE100A6FEA81
:10575000D05010F0FF0F04BFBDEC028B10BD18EE4F
:10576000900A00F0004110EE100A00F00040814263
:1057700004BFBDEC028B10BD18EE101A10EE100A1B
:10578000BDEC028B61F31E0000EE900A30EE600A61
:1057900010BD18EE900A4FF07F41B1EB400F1CBFD7
:1057A00018EE100A5FEA4000C7D1012000F09CF912
:1057B000BDEC028BBDE8104000F0CCB800B510EE97
:1057C000101A2DED028B81B0524A6846B2EB410FA0
:1057D0002ED94FF0E640B0EB410F94BF00204FF0C0
:1057E000FF3000900098B0EE408A00286ADB10F08D
:1057F000010F4BD068EE080A9FED471A9FED470A4C
:1058000000EE810A9FED461A10F0020F00EE801A9A
:10581000B7EE000A00EE810A02BF01B0BDEC028BB8
:1058200000BD00BF01B0B1EE400ABDEC028B00BD6F
:105830003C4B21F00042934241D911F0004FDFED83
:105840003A0A20EE201ADFED390A19BF31EE601A4C
:1058500071EE200A31EE201A71EE600ABDEEE01AF8
:1058600011EE100A9FED321A00F0030000EEC10A9B
:105870009FED301A009000EEC10A9FED2F1A00EE46
:10588000C10A9FED2E1A00EEC10AABE728EE080A06
:105890009FED2B1ADFED2B0A10F0020F40EE410AAC
:1058A0009FED291A00EE201A61EE000AB0EE480AB8
:1058B00008EE200AB6D101B0BDEC028B00BD00F0AD
:1058C00059F88FE718EE100A4000B0F17F4F0DD263
:1058D00018EE100AFFF7C2FD042808BF00F042F8D6
:1058E000B0EE480A01B0BDEC028B00BD09D1012029
:1058F00000F0FAF801B0BDEC028B5DF804EB00F0AB
:1059000029B801B0B0EE480ABDEC028B5DF804EB9B
:1059100000F01CB8B61F927EB93AB2BACA9F2A3DAF
:10592000DDFFFFBE490E494683F9223F0000004BD0
:105930000000C93F00A0FD390020A2331A61342CB9
:10594000336D4C39DA82083CA0AA2ABE30EE000A38
:1059500070470000DFED020A80EEA00A70470000E9
:10596000000000009FED020A20EE000A70470000D0
:10597000000000102DE9F0014FF07F42B2EB410F23
:105980009FBF4FF0FF310160BDE8F00170474FF05D
:10599000004242EA0123C1F3C752783A551112F08E
:1059A0001F0C434CCCF120067C44C1F3C752A2F13A
:1059B00078024FEA621204EB820254F8254008BFD5
:1059C000D2E9015612D0556804FA0CF425FA06F70C
:1059D0003C43976805FA0CF527FA06F8D26807FAEF
:1059E0000CFCF24045EA08054CEA0206A4FB034C15
:1059F000A5FB0352A6FB03631D449D4234BF012651
:105A000000261319334416B1934202D903E093429E
:105A100001D2012200E00022624402F1200C920631
:105A2000DC0C42EA443200EE102A5B03DFED210A6F
:105A3000F8EEC01A00EE103A4FEA9C1C11F0004F2D
:105A4000B8EE400AC0F800C020EE201A00EE105A4E
:105A5000DFED190AB8EE400A20EE200A71EE810A45
:105A600070EE800A10EE902A02F500626FF30B02CE
:105A700000EE902A70EEE11A31EEC11ADFED101A35
:105A800030EE411A9FED0D0A20EE800A01EE210A48
:105A90009FED0C1A00EE810A04BFBDE8F0017047CB
:105AA000CCF180510160BDE8F001B1EE400A7047D1
:105AB00074070000000000360000802C22AAFD2997
:105AC000DB0FC92F0000C92F02E008C8121F08C150
:105AD000002AFAD170477047002001E001C1121F6F
